S00E000057696E6465722E73726563AD
S113000071C000008FC000008DC000008BC00000D4
S113001089C0000087C0000085C0000083C00000C4
S113002081C000007FC000007DC000007BC00000D4
S113003079C0000077C0000075C0000073C00000E4
S113004071C000000C9433086DC000006BC0000048
S113005069C0000067C0000065C000000C94210A5C
S113006061C00000B8C700005DC000005BC00000B4
S113007059C0000057C0000055C0000053C0000024
S11300800C942A094FC000004DC000004BC0000072
S113009049C0000047C0000045C0000043C0000044
S11300A041C000003FC000003DC000003BC0000054
S11300B039C0000037C0000035C0000033C0000064
S11300C031C000002FC000002DC000002BC0000074
S11300D029C0000027C0000025C0000023C0000084
S11300E021C0000011241FBECFEFD1E2DEBFCDBF7F
S11300F000E00CBF12E0A0E0B2E0E4EAFDE100E0C1
S11301000BBF02C007900D92A637B107D9F724E0C0
S1130110A6E7B2E001C01D92AC39B207E1F743D3C0
S11301200C94D00E6DCFCF93DF93CDB7DEB785E4BB
S113013090E025E0FC01208386E490E0FC0110823D
S11301408EE690E021E0FC0120830000DF91CF9156
S11301500895CF93DF93CDB7DEB785E490E0FC013B
S113016010820000DF91CF910895CF93DF93CDB734
S1130170DEB780E890E0FC01108281E890E0FC01A9
S1130180108285E890E0FC01108284E890E0FC0194
S1130190108287E890E0FC01108286E890E0FC0180
S11301A0108289E890E0FC01108288E890E0FC016C
S11301B010828BE890E0FC0110828AE890E0FC0158
S11301C010828DE890E0FC0110828CE890E0FC0144
S11301D010828FE690E022E0FC0120830000DF9192
S11301E0CF910895CF93DF93CDB7DEB780E890E049
S11301F0FC01108281E890E022E0FC01208385E884
S113020090E0FC01108284E890E0FC01108287E811
S113021090E0FC01108286E890E0FC0110828BE8FB
S113022090E0FC0110828AE890E0FC0110828DE8E5
S113023090E0FC0110828CE890E0FC0110828FE6D3
S113024090E022E0FC0120830000DF91CF9108952B
S1130250CF93DF93CDB7DEB780E990E0FC01108245
S113026081E990E0FC01108285E990E0FC011082B4
S113027084E990E0FC01108287E990E0FC0110829F
S113028086E990E0FC01108289E990E0FC0110828B
S113029088E990E0FC0110828BE990E0FC01108277
S11302A08AE990E0FC0110828DE990E0FC01108263
S11302B08CE990E0FC01108281E790E022E0FC01EF
S11302C020830000DF91CF910895CF93DF93CDB7C2
S11302D0DEB780E990E0FC01108281E990E022E041
S11302E0FC01208385E990E0FC01108284E990E020
S11302F0FC01108287E990E0FC01108286E990E01D
S1130300FC0110828BE990E0FC0110828AE990E004
S1130310FC0110828DE990E0FC0110828CE990E0F0
S1130320FC01108281E790E022E0FC0120830000C0
S1130330DF91CF910895CF93DF9300D01F92CDB773
S1130340DEB769837A838B839C8389819A81AB81AD
S1130350BC819C01AD01220F331F441F551F80E84F
S113036094E8AEE1B0E0BC01CD010E94CB0BDA0110
S1130370C9018093820490938304A0938404B0936E
S113038085048091820490918304A0918404B091A7
S113039085041197181619061A061B06BCF48091D9
S11303A07E048F5F80937E04809182049091830405
S11303B0A0918404B0918504119780938204909352
S11303C08304A0938404B0938504DBCF90917E04CE
S11303D081E0992309F080E0882371F028E830E077
S11303E08091820490918304A0918404B091850447
S11303F0F9019183808307C088E890E02FEF3FEFF5
S1130400FC013183208380917E0480937F04EADEA3
S113041000000F900F900F900F90DF91CF910895EF
S1130420CF93DF9300D01F92CDB7DEB769837A8371
S11304308B839C8389819A81AB81BC819C01AD01B2
S1130440220F331F441F551F80E894E8AEE1B0E04B
S1130450BC01CD010E94CB0BDA01C9018093860453
S113046090938704A0938804B093890480918604B0
S113047090918704A0918804B0918904119718166B
S113048019061A061B06BCF4809180048F5F8093C2
S113049080048091860490918704A0918804B0918F
S11304A0890411978093860490938704A093880409
S11304B0B0938904DBCF9091800481E0992309F003
S11304C080E0882371F028E930E0809186049091DF
S11304D08704A0918804B0918904F90191838083F1
S11304E007C088E990E02FEF3FEFFC0131832083C0
S11304F08091800480938104E8DE00000F900F90C7
S11305000F900F90DF91CF910895CF93DF931F92B7
S1130510CDB7DEB7898389818730B1F48BE290E06F
S11305202BE230E0F9012081622F2981422F50E033
S113053021E030E002C0220F331F4A95E2F72095F4
S11305402623FC01208315C081E390E021E330E001
S1130550F9012081622F2981422F50E021E030E00F
S113056002C0220F331F4A95E2F720952623FC018F
S1130570208300000F90DF91CF910895CF93DF93F4
S11305801F92CDB7DEB7898389818730A9F48BE2C6
S113059090E02BE230E0F9012081622F2981422F83
S11305A050E021E030E002C0220F331F4A95E2F709
S11305B0262BFC01208314C081E390E021E330E08A
S11305C0F9012081622F2981422F50E021E030E09F
S11305D002C0220F331F4A95E2F7262BFC01208329
S11305E000000F90DF91CF910895CF93DF931F9276
S11305F01F92CDB7DEB789836A838A818823A9F0E5
S113060081E390E021E330E0F9012081622F298128
S1130610422F50E021E030E002C0220F331F4A9500
S1130620E2F7262BFC01208315C081E390E021E34F
S113063030E0F9012081622F2981422F50E021E02E
S113064030E002C0220F331F4A95E2F7209526239B
S1130650FC01208300000F900F90DF91CF9108954B
S1130660CF93DF931F921F92CDB7DEB789836A833E
S11306708981882321F46A8181E0B7DF03C06A811C
S113068087E0B3DF8981882331F464E670E080E099
S113069090E051DE05C064E670E080E090E0C0DEEA
S11306A000000F900F90DF91CF910895CF93DF93C7
S11306B000D000D0CDB7DEB789836A832B833C8317
S11306C04D835E836A818981CBDF8981882369F4C4
S11306D08B819C81AD81BE8180938A0490938B042D
S11306E0A0938C04B0938D040CC08B819C81AD814C
S11306F0BE8180938E0490938F04A0939004B09352
S113070091048981882321F481E08093920403C0B9
S113071081E080939304000026960FB6F894DEBF20
S11307200FBECDBFDF91CF910895CF93DF931F927A
S1130730CDB7DEB7898380EC90E0FC018081882FFF
S113074090E08072992721E0892B09F020E0222390
S113075009F0F1CF86EC90E02981FC0120830000B0
S11307600F90DF91CF910895CF93DF931F921F9243
S1130770CDB7DEB79A83898389819A81FC01808110
S1130780882359F089819A81FC018081CEDF898197
S11307909A8101969A838983EFCF00000F900F907E
S11307A0DF91CF910895CF93DF93CDB7DEB7A097B4
S11307B00FB6F894DEBF0FBECDBF80E090E00E947C
S11307C0C80E8093760281E290E0FC01108282E2FE
S11307D090E0FC01108284E290E020E8FC01208398
S11307E085E290E0FC01108287E290E0FC01108237
S11307F088E290E0FC0110828AE290E020E8FC01AB
S113080020838BE290E0FC0110828DE290E022E0F4
S1130810FC0120838EE290E0FC01108280E390E0F2
S113082027ECFC01208381E390E0FC01108283E348
S113083090E0FC01108284E390E0FC01108281E0EE
S113084091E0FC01108282E091E0FC01108284E0DE
S113085091E0FC01108285E091E0FC01108287E0C8
S113086091E0FC01108288E091E0FC0110828AE0B2
S113087091E0FC0110828BE091E0FC01108284E4A1
S113088090E0FC01108285E490E0FC01108286E493
S113089090E0FC01108287E490E0FC01108288E47F
S11308A090E0FC01108280E890E0FC01108281E875
S11308B090E0FC01108285E890E0FC01108284E85D
S11308C090E0FC01108287E890E0FC01108286E849
S11308D090E0FC01108289E890E0FC01108288E835
S11308E090E0FC0110828BE890E0FC0110828AE821
S11308F090E0FC0110828DE890E0FC0110828CE80D
S113090090E0FC01108286EB90E0FC01108280EB09
S113091090E0FC01108281EB90E0FC01108282EBFC
S113092090E0FC01108283EB90E0FC01108284EBE8
S113093090E0FC01108280E990E0FC01108281E9E2
S113094090E0FC01108285E990E0FC01108284E9CA
S113095090E0FC01108287E990E0FC01108286E9B6
S113096090E0FC01108289E990E0FC01108288E9A2
S113097090E0FC0110828BE990E0FC0110828AE98E
S113098090E0FC0110828DE990E0FC0110828CE97A
S113099090E0FC01108280EA90E0FC01108281EA80
S11309A090E0FC01108285EA90E0FC01108284EA68
S11309B090E0FC01108287EA90E0FC01108286EA54
S11309C090E0FC01108289EA90E0FC01108288EA40
S11309D090E0FC0110828BEA90E0FC0110828AEA2C
S11309E090E0FC0110828DEA90E0FC0110828CEA18
S11309F090E0FC01108280E291E0FC01108281E22F
S1130A0091E0FC01108285E291E0FC01108284E215
S1130A1091E0FC01108287E291E0FC01108286E201
S1130A2091E0FC01108289E291E0FC01108288E2ED
S1130A3091E0FC0110828BE291E0FC0110828AE2D9
S1130A4091E0FC0110828DE291E0FC0110828CE2C5
S1130A5091E0FC0110828EE690E0FC0110828FE6AA
S1130A6090E0FC01108280E790E0FC01108281E7B5
S1130A7090E0FC01108282E790E0FC01108283E7A1
S1130A8090E0FC01108289E690E0FC0110828AE685
S1130A9090E0FC0110828DE390E0FC0110828BE673
S1130AA090E0FC0110828CE690E0FC0110828DE65F
S1130AB090E0FC01108288E690E0FC01108280EC5A
S1130AC090E0FC01108281EC90E028E9FC01208395
S1130AD082EC90E026E0FC01208385EC90E0FC01B0
S1130AE0108284EC90E027E6FC01208389EC90E0FE
S1130AF0FC01108281ED90E0FC01108281E391E021
S1130B00FC01108280E590E020E8FC0120838BE763
S1130B1090E0FC0110828FE790E0FC0110828AE7EC
S1130B2090E0FC0110828CE490E0FC0110828CEBDC
S1130B3090E0FC01108287E0E8DC20E931E040E04D
S1130B4050E060E080E0B2DD82E0DFDC28EC30E001
S1130B5040E050E061E086E0A9DD789488E0E0E0E0
S1130B60F2E0A7E7B3E001900D928A95E1F787E7F9
S1130B7093E0FADD85E290E025E230E0F90130818E
S1130B8020E82327FC0120838AE1E8E0F2E0A7E7DC
S1130B90B3E001900D928A95E1F787E793E0E4DDF5
S1130BA090917B0481E0992309F080E0882309F483
S1130BB048C09091780481E0992309F480E0882367
S1130BC079F38091940490919504A0919604B09146
S1130BD09704880F991FAA1FBB1F9C01AD01220F08
S1130BE0331F441F551F220F331F441F551F280F47
S1130BF0391F4A1F5B1F80917904882F90E0895820
S1130C009D4FFC018081882F90E0C097092E000C35
S1130C10AA0BBB0B820F931FA41FB51F80939404D0
S1130C2090939504A0939604B093970480917904CB
S1130C308F5F809379048091780481508093780445
S1130C40B8CF10927B048091940490919504A09164
S1130C509604B09197042B2F2F932A2F2F93292F8B
S1130C602F938F9382E292E0892F8F9382E292E016
S1130C708F9387E793E0892F8F9387E793E08F9390
S1130C80ACD58DB79EB708960FB6F894DEBF0FBEED
S1130C90CDBF87E793E068DD87E1E0E4F2E0A7E712
S1130CA0B3E001900D928A95E1F787E793E05CDD6C
S1130CB090917B0481E0992309F080E0882309F472
S1130CC048C09091780481E0992309F480E0882356
S1130CD079F38091980490919904A0919A04B09129
S1130CE09B04880F991FAA1FBB1F9C01AD01220FF3
S1130CF0331F441F551F220F331F441F551F280F36
S1130D00391F4A1F5B1F80917904882F90E089580E
S1130D109D4FFC018081882F90E0C097092E000C24
S1130D20AA0BBB0B820F931FA41FB51F80939804BB
S1130D3090939904A0939A04B0939B0480917904AE
S1130D408F5F809379048091780481508093780434
S1130D50B8CF10927B048091980490919904A0914B
S1130D609A04B0919B042B2F2F932A2F2F93292F72
S1130D702F938F9387E592E0892F8F9387E592E0F5
S1130D808F9387E793E0892F8F9387E793E08F937F
S1130D9024D58DB79EB708960FB6F894DEBF0FBE64
S1130DA0CDBF87E793E0E0DC9091780481E099235C
S1130DB009F480E0882301F180917A04882F90E07F
S1130DC020917904222F30E029583D4FF9012081E8
S1130DD089589C4FFC012083809179048F5F809314
S1130DE079048091780481508093780480917A0406
S1130DF08F5F80937A04D8CF80917A04882F90E013
S1130E0089589C4FFC01108287E793E0ADDC109277
S1130E107A0480E090E0A0E8BFE389839A83AB83FF
S1130E20BC832BEA3AEA4AEA50E469817A818B81ED
S1130E309C814ED4DC01CB018D839E83AF83B88724
S1130E4020E030E040E850E469817A818B819C8124
S1130E503FD4DC01CB0189879A87AB87BC8720E02C
S1130E6030E040E85FE36D817E818F8198851FD3F8
S1130E7088231CF481E08D87A7C020E03FEF4FE773
S1130E8057E469857A858B859C851ED418160CF0E9
S1130E9074C020E030E04AE754E469817A818B81B0
S1130EA09C8109D3DC01CB018E879F87A88BB98BEA
S1130EB020E030E04AE755E46E857F85888999898A
S1130EC007D4DC01CB018A8B9B8BAC8BBD8B20E0E0
S1130ED030E040E85FE36A897B898C899D89E7D2A9
S1130EE088232CF481E090E09F8B8E8B3BC020E024
S1130EF03FEF4FE757E46A897B898C899D89E4D366
S1130F0018163CF520E030E040E251E46E857F8520
S1130F1088899989DDD3DC01CB01BC01CD0133D3B0
S1130F20DC01CB019F8B8E8B8E899F89892B09F4E1
S1130F304BC080E991E0998F888F888D998D0197B6
S1130F40F1F7998F888F8E899F8901979F8B8E8B5C
S1130F50EBCF6A897B898C899D8915D3DC01CB0110
S1130F609F8B8E8B8E899F899B8F8A8F8A8D9B8D79
S1130F700197F1F79B8F8A8F27C020E030E04FE77D
S1130F8053E46D817E818F8198859ED31816A4F4D5
S1130F9069857A858B859C85F6D2DC01CB019D8F92
S1130FA08C8F8C8D9D8D9F8F8E8F8E8D9F8D0197B5
S1130FB0F1F79F8F8E8FF8CE6D817E818F8198851A
S1130FC0E2D2DC01CB018D878D8588A388A18A9527
S1130FD0F1F788A3E9CE1F920F9200905F000F9261
S1130FE0112400905B000F922F933F934F935F93D4
S1130FF06F937F938F939F93AF93BF93EF93FF93DD
S1131000CF93DF93CDB7DEB780917704882F90E03C
S113101026EC30E0F901208189589D4FFC012083A2
S1131020809177048F5F80937704809178048F5F39
S11310308093780478D80000DF91CF91FF91EF91ED
S1131040BF91AF919F918F917F916F915F914F91DC
S11310503F912F910F9000925B000F9000925F00E0
S11310600F901F9018951F920F9200905F000F929F
S1131070112400905B000F922F933F934F935F9343
S11310806F937F938F939F93AF93BF93EF93FF934C
S1131090CF93DF93CDB7DEB790917E0481E099239F
S11310A009F480E0882329F080917E0481508093A4
S11310B07E0490917E0481E0992309F080E08823E6
S11310C009F4A8C090917F0481E0992309F480E099
S11310D0882309F464C028E830E080918204909168
S11310E08304A0918404B0918504F90191838083E1
S11310F080917C048F5F80937C0490917C0481E0D8
S1131100923009F080E0882309F484C010927C04B2
S113111088E890E02FEF3FEFFC013183208380913A
S11311207F0480937E049091920481E0913009F0D1
S113113080E0882349F180918A0490918B04A091E6
S11311408C04B0918D040197A109B10980938A049C
S113115090938B04A0938C04B0938D0480918A04A3
S113116090918B04A0918C04B0918D0421E0892B83
S11311708A2B8B2B09F020E0222331F01092920469
S11311800E94B50087E0FAD981E390E021E330E0E2
S1131190F901308121E02327FC0120833BC0909199
S11311A0920481E0913009F080E0882349F1809134
S11311B08A0490918B04A0918C04B0918D040197C2
S11311C0A109B10980938A0490938B04A0938C04A1
S11311D0B0938D0480918A0490918B04A0918C0427
S11311E0B0918D0421E0892B8A2B8B2B09F020E010
S11311F0222331F0109292040E94B50087E0BED9F8
S113120081E390E021E330E0F901308121E02327FC
S1131210FC01208385E890E0FC01108284E890E0E2
S1131220FC0110820000DF91CF91FF91EF91BF91FB
S1131230AF919F918F917F916F915F914F913F916A
S11312402F910F9000925B000F9000925F000F901F
S11312501F9018951F920F9200905F000F92112417
S113126000905B000F922F933F934F935F936F9384
S11312707F938F939F93AF93BF93EF93FF93CF93FA
S1131280DF93CDB7DEB79091800481E0992309F410
S113129080E0882329F08091800481508093800429
S11312A09091800481E0992309F080E0882309F477
S11312B0A8C09091810481E0992309F480E08823F7
S11312C009F464C028E930E0809186049091870491
S11312D0A0918804B0918904F9019183808380915D
S11312E07D048F5F80937D0490917D0481E0923032
S11312F009F080E0882309F484C010927D0488E911
S113130090E02FEF3FEFFC01318320838091810433
S1131310809380049091930481E0913009F080E0FF
S1131320882349F180918E0490918F04A0919004B8
S1131330B09191040197A109B10980938E0490930F
S11313408F04A0939004B093910480918E049091A3
S11313508F04A0919004B091910421E0892B8A2BF1
S11313608B2B09F020E0222331F0109293040E9489
S1131370280182E003D981E390E021E330E0F90120
S1131380308120E42327FC0120833BC09091930407
S113139081E0913009F080E0882349F180918E0446
S11313A090918F04A0919004B09191040197A109A8
S11313B0B10980938E0490938F04A0939004B0930A
S11313C0910480918E0490918F04A0919004B09127
S11313D0910421E0892B8A2B8B2B09F020E0222316
S11313E031F0109293040E94280182E0C7D881E36F
S11313F090E021E330E0F901308120E42327FC016F
S1131400208385E990E0FC01108284E990E0FC01EE
S113141010820000DF91CF91FF91EF91BF91AF91C6
S11314209F918F917F916F915F914F913F912F91F8
S11314300F9000925B000F9000925F000F901F903E
S113144018951F920F9200905F000F921124009044
S11314505B000F922F933F934F935F936F937F9310
S11314608F939F93AF93BF93EF93FF93CF93DF93A8
S1131470CDB7DEB781E080937B040E94A900000011
S1131480DF91CF91FF91EF91BF91AF919F918F9198
S11314907F916F915F914F913F912F910F900092A7
S11314A05B000F9000925F000F901F90189597D0EB
S11314B008F481E008950CD0CDC0C5D040F0BCD074
S11314C030F021F45F3F19F0AEC05111F7C0B1C044
S11314D0D2D098F39923C9F35523B1F3951B550B37
S11314E0BB27AA2762177307840738F09F5F5F4FF3
S11314F0220F331F441FAA1FA9F333D00E2E3AF034
S1131500E0E830D091505040E695001CCAF729D04D
S1131510FE2F27D0660F771F881FBB1F261737079C
S11315204807AB07B0E809F0BB0B802DBF01FF27CC
S113153093585F4F2AF09E3F510568F074C0BEC0B7
S11315405F3FECF3983EDCF3869577956795B79506
S1131550F7959F5FC9F7880F911D9695879597F921
S11315600895E1E0660F771F881FBB1F621773079A
S11315708407BA0720F0621B730B840BBA0BEE1FAF
S113158088F7E09508957FD088F09F5790F0B92FA1
S11315909927B751A0F0D1F0660F771F881F991FC4
S11315A01AF0BA95C9F712C0B13081F086D0B1E013
S11315B0089583C0672F782F8827B85F39F0B93F23
S11315C0CCF3869577956795B395D9F73EF49095C6
S11315D08095709561957F4F8F4F9F4F0895990F18
S11315E00008550FAA0BE0E8FEEF16161706E807E9
S11315F0F907C0F012161306E407F50798F0621B0A
S1131600730B840B950B39F40A2661F0232B242BDE
S1131610252B21F408950A2609F4A140A6958FEFFD
S1131620811D811D089597F99F6780E870E060E04F
S113163008959FEF80EC089500240A941616170667
S113164018060906089500240A94121613061406AF
S113165005060895092E0394000C11F4882352F012
S1131660BB0F40F4BF2B11F460FF04C06F5F7F4FCA
S11316708F4F9F4F089557FD9058440F551F59F0B1
S11316805F3F71F04795880F97FB991F61F09F3F6B
S113169079F087950895121613061406551FF2CF94
S11316A04695F1DF08C0161617061806991FF1CFE4
S11316B086957105610508940895E894BB2766270B
S11316C07727CB0197F908958ADF08F48FEF0895FF
S11316D00BD0C0CFB1DF28F0B6DF18F0952309F0A6
S11316E0A2CFA7CF1124EACFC6DFA0F3959FD1F3F1
S11316F0950F50E0551F629FF001729FBB27F00DBC
S1131700B11D639FAA27F00DB11DAA1F649F662710
S1131710B00DA11D661F829F2227B00DA11D621F5F
S1131720739FB00DA11D621F839FA00D611D221F19
S1131730749F3327A00D611D231F849F600D211DFD
S1131740822F762F6A2F11249F5750408AF0E1F0A0
S113175088234AF0EE0FFF1FBB1F661F771F881FE9
S113176091505040A9F79E3F510570F05CCFA6CF31
S11317705F3FECF3983EDCF3869577956795B795D4
S1131780F795E7959F5FC1F7FE2B880F911D9695FE
S1131790879597F90895A1E21A2EAA1BBB1BFD0198
S11317A00DC0AA1FBB1FEE1FFF1FA217B307E4073C
S11317B0F50720F0A21BB30BE40BF50B661F771F94
S11317C0881F991F1A9469F7609570958095909574
S11317D09B01AC01BD01CF0108950F931F93CF93DB
S11317E0DF93CDB7DEB72E970FB6F894DEBF0FBEEA
S11317F0CDBF0E891F8986E08C831A8309838FEFFE
S11318009FE79E838D83AE01465E5F4F688D798D21
S1131810CE01019610D0EF81F885E00FF11F108200
S11318202E960FB6F894DEBF0FBECDBFDF91CF91D9
S11318301F910F9108952F923F924F925F926F9252
S11318407F928F929F92AF92BF92CF92DF92EF924C
S1131850FF920F931F93CF93DF93CDB7DEB72B97F0
S11318600FB6F894DEBF0FBECDBF6C017B018A01B9
S1131870FC0117821682838181FFBFC1CE010196CC
S11318803C01F6019381F70193FD859193FF8191CA
S11318907F01882309F4ADC1853239F493FD859124
S11318A093FF81917F01853221F4B60190E0D6D176
S11318B0E8CF912C212C312CFFE1F315D8F08B3299
S11318C079F038F4803279F08332A1F4232D206149
S11318D01DC08D3261F0803369F4232D216016C060
S11318E0832D8260382EE32DE4603E2E2AC0F32D32
S11318F0F8601DC037FC2DC020ED280F2A3040F0C1
S11319008E32B9F436FC75C1232D2064322E19C0F1
S113191036FE06C08AE0989E200D1124922E11C036
S1131920EAE02E9E200D1124222EF32DF0623F2E8C
S113193008C08C3621F4832D8068382E02C0883686
S113194041F4F70193FD859193FF81917F0181110A
S1131950B3CF982F9F7D9554933028F40C5F1F4F7D
S11319609FE399830DC0833631F0833771F083355B
S113197009F055C020C0F801808189830E5F1F4F94
S113198088248394912C530112C02801F2E04F0E55
S1131990511CF801A080B18036FE03C0692D70E0AF
S11319A002C06FEF7FEFC5014ED14C018201F32DD0
S11319B0FF773F2E15C0280122E0420E511CF8018A
S11319C0A080B18036FE03C0692D70E002C06FEFC5
S11319D07FEFC5012DD14C01F32DF0683F2E82011C
S11319E033FC19C0822D90E088169906A0F4B60144
S11319F080E290E033D12A94F5CFF50137FC85914C
S1131A0037FE81915F01B60190E028D121102A941C
S1131A1021E0821A91088114910479F7E1C0843697
S1131A2011F0893639F5F80137FE07C060817181FC
S1131A30828193810C5F1F4F08C060817181072EE2
S1131A40000C880B990B0E5F1F4FF32DFF763F2E72
S1131A5097FF09C090958095709561957F4F8F4F42
S1131A609F4FF0683F2E2AE030E0A30133D1882E47
S1131A70861844C0853731F4232D2F7EB22E2AE0F8
S1131A8030E025C0932D997FB92E8F36C1F018F41C
S1131A90883579F0AEC0803719F0883721F0A9C0B5
S1131AA0E92FE061BE2EB4FE0DC0FB2DF460BF2E05
S1131AB009C034FE0AC0292F2660B22E06C028E0D1
S1131AC030E005C020E130E002C020E132E0F8015E
S1131AD0B7FE07C060817181828193810C5F1F4FC3
S1131AE006C06081718180E090E00E5F1F4FA3010A
S1131AF0F1D0882E8618FB2DFF773F2E36FE0DC0C1
S1131B00232D2E7FA22E891458F434FE0BC032FCF0
S1131B1009C0832D8E7EA82E05C0B82CA32C03C02B
S1131B20B82C01C0B92CA4FE0FC0FE01E80DF11DB4
S1131B308081803321F49A2D997EA92E09C0A2FEBA
S1131B4006C0B394B39404C08A2D867809F0B39484
S1131B50A3FC10C0A0FE06C0B21480F4280C922C82
S1131B609B180DC0B21458F4B60180E290E076D010
S1131B70B394F8CFB21418F42B1802C0982C212C6B
S1131B80A4FE0FC0B60180E390E068D0A2FE16C0A8
S1131B90A1FC03C088E790E002C088E590E0B601AC
S1131BA00CC08A2D867851F0A1FE02C08BE201C0E0
S1131BB080E2A7FC8DE2B60190E050D0891430F4A5
S1131BC0B60180E390E04AD09A94F8CF8A94F30166
S1131BD0E80DF11D8081B60190E040D08110F6CF70
S1131BE0222009F44ECEB60180E290E037D02A9448
S1131BF0F7CFF6018681978102C08FEF9FEF2B9676
S1131C000FB6F894DEBF0FBECDBFDF91CF911F9109
S1131C100F91FF90EF90DF90CF90BF90AF909F9087
S1131C208F907F906F905F904F903F902F9008958A
S1131C30FC010590615070400110D8F78095909593
S1131C408E0F9F1F0895FC01615070400190011098
S1131C50D8F7809590958E0F9F1F08950F931F932B
S1131C60CF93DF93FB01238121FD03C08FEF9FEF0F
S1131C702CC022FF16C0468157812481358142172A
S1131C80530744F4A081B1819D012F5F3F4F3183FD
S1131C9020838C93268137812F5F3F4F37832683A0
S1131CA014C08B01EC01FB010084F185E02D199532
S1131CB0892BE1F6D80116968D919C911797019680
S1131CC017969C938E931697CE01DF91CF911F9117
S1131CD00F910895FA01AA27283051F1203181F19A
S1131CE0E8946F936E7F6E5F7F4F8F4F9F4FAF4F20
S1131CF0B1E03ED0B4E03CD0670F781F891F9A1F33
S1131D00A11D680F791F8A1F911DA11D6A0F711DE6
S1131D10811D911DA11D20D009F468943F912AE0F2
S1131D20269F11243019305D3193DEF6CF010895DA
S1131D30462F4770405D4193B3E00FD0C9F7F6CF0B
S1131D40462F4F70405D4A3318F0495D31FD4052D3
S1131D50419302D0A9F7EACFB4E0A6959795879569
S1131D6077956795BA95C9F7009761057105089548
S1131D709B01AC010A2E06945795479537952795F4
S1131D80BA95C9F7620F731F841F951FA01D08958C
S1131D90F999FECF92BD81BDF89A992780B508952F
S1071DA0F894FFCFE1
S1131DA448656C6C6F0A0A004469616D65747275E8
S1131DB46C207361726D656920696E206D6D3A3FA4
S1131DC40A004469616D657472756C207361726D87
S1131DD46569206573746520256C75206D6D0A0032
S1131DE44C756E67696D656120626F62696E6569C1
S1131DF4206D6D3A3F0A004C756E67696D6561200C
S1131E04626F62696E6569206573746520256C75FB
S1091E14206D6D0A0000C0
S9030000FC
