S00E000057696E6465722E73726563AD
S1130000F2C0000011C100000FC100000DC10000CA
S11300100BC1000009C1000007C1000005C10000B8
S113002003C1000001C10000FFC00000FDC00000CA
S1130030FBC00000F9C00000F7C00000F5C00000DC
S1130040F3C000000C948E0FEFC00000EDC0000060
S1130050EBC00000E9C00000E7C000000C9474117C
S1130060E3C000000C94450FDFC00000DDC00000B9
S1130070DBC00000D9C00000D7C00000D5C000001C
S11300800C948110D1C00000CFC00000CDC000008E
S1130090CBC00000C9C00000C7C00000C5C000003C
S11300A0C3C00000C1C00000BFC00000BDC000004C
S11300B0BBC00000B9C00000B7C00000B5C000005C
S11300C0B3C00000B1C00000AFC00000ADC000006C
S11300D0ABC00000A9C00000A7C00000A5C000007C
S11300E0A3C000006E616E00696E660000407A1065
S11300F0F35A00A0724E18090010A5D4E80000E8D5
S11301007648170000E40B54020000CA9A3B000032
S113011000E1F505000080969800000040420F00C1
S11301200000A08601000000102700000000E80382
S1130130000000006400000000000A00000000004D
S11301400100000000002C76D888DC674F0823DF0C
S1130150C1DFAE59E1B1B796E5E3E453C63AE651DF
S1130160997696E8E6C28426EB898C9B62ED407C06
S11301706FFCEFBC9C9F40F2BAA56FA5F490055AA2
S11301802AF75C936B6CF9676DC11BFCE0E40D47C7
S1130190FEF520E6B500D0ED902E030094357705EA
S11301A00080841E080000204E0A000000C80C33A2
S11301B03333330F986E12831141EF8D2114893B31
S11301C0E65516CFFEE6DB18D1844B381BF77C1DB1
S11301D0901DA4BBE424203284725E228100C9F104
S11301E024ECA1E53D2711241FBECFEFD1E2DEBFF1
S11301F0CDBF00E00CBF14E0A0E0B2E0ECEFF2E30E
S113020000E00BBF02C007900D92A431B107D9F7EB
S113021026E0A4E1B4E001C01D92AE35B207E1F7D7
S11302200E9424090C947C19EBCECF93DF93CDB7B5
S1130230DEB785E490E025E0FC01208386E490E0CD
S1130240FC0110828EE690E021E0FC012083000096
S1130250DF91CF910895CF93DF93CDB7DEB785E4D7
S113026090E0FC0110820000DF91CF910895CF93BC
S1130270DF93CDB7DEB780E890E0FC01108281E81F
S113028090E0FC01108285E890E0FC01108284E893
S113029090E0FC01108287E890E0FC01108286E87F
S11302A090E0FC01108289E890E0FC01108288E86B
S11302B090E0FC0110828BE890E0FC0110828AE857
S11302C090E0FC0110828DE890E0FC0110828CE843
S11302D090E0FC0110828FE690E022E0FC01208394
S11302E00000DF91CF910895CF93DF93CDB7DEB7B0
S11302F080E890E0FC01108281E890E022E0FC01BB
S1130300208385E890E0FC01108284E890E0FC0101
S1130310108287E890E0FC01108286E890E0FC01FE
S113032010828BE890E0FC0110828AE890E0FC01E6
S113033010828DE890E0FC0110828CE890E0FC01D2
S113034010828FE690E022E0FC0120830000DF9120
S1130350CF910895CF93DF93CDB7DEB780E990E0D6
S1130360FC01108281E990E0FC01108285E990E0B3
S1130370FC01108284E990E0FC01108287E990E09E
S1130380FC01108286E990E0FC01108289E990E08A
S1130390FC01108288E990E0FC0110828BE990E076
S11303A0FC0110828AE990E0FC0110828DE990E062
S11303B0FC0110828CE990E0FC01108281E790E05E
S11303C022E0FC0120830000DF91CF910895CF93B8
S11303D0DF93CDB7DEB780E990E0FC01108281E9BC
S11303E090E022E0FC01208385E990E0FC0110828A
S11303F084E990E0FC01108287E990E0FC0110821E
S113040086E990E0FC0110828BE990E0FC01108207
S11304108AE990E0FC0110828DE990E0FC011082F1
S11304208CE990E0FC01108281E790E022E0FC017D
S113043020830000DF91CF910895CF93DF9300D004
S11304401F92CDB7DEB769837A838B839C838981BE
S11304509A81AB81BC819C01AD01220F331F441FE3
S1130460551F80E894E8AEE1B0E0BC01CD010E94E4
S11304709C17DA01C9018093200690932106A0936A
S11304802206B09323068091200690912106A09124
S11304902206B09123061197181619061A061B0690
S11304A0BCF480911C068F5F80931C06809120060B
S11304B090912106A0912206B09123061197809372
S11304C0200690932106A0932206B0932306DBCF47
S11304D090911C0681E0992309F080E0882371F053
S11304E028E830E08091200690912106A091220610
S11304F0B0912306F9019183808307C088E890E0D6
S11305002FEF3FEFFC013183208380911C06809301
S11305101D06EADE00000F900F900F900F90DF9100
S1130520CF910895CF93DF9300D01F92CDB7DEB75C
S113053069837A838B839C8389819A81AB81BC8113
S11305409C01AD01220F331F441F551F80E894E81E
S1130550AEE1B0E0BC01CD010E949C17DA01C901F3
S11305608093240690932506A0932606B09327062D
S11305708091240690912506A0912606B091270625
S11305801197181619061A061B06BCF480911E064C
S11305908F5F80931E068091240690912506A0917A
S11305A02606B0912706119780932406909325067A
S11305B0A0932606B0932706DBCF90911E0681E018
S11305C0992309F080E0882371F028E930E08091D4
S11305D0240690912506A0912606B0912706F901DC
S11305E09183808307C088E990E02FEF3FEFFC01FF
S11305F03183208380911E0680931F06E8DE00006D
S11306000F900F900F900F90DF91CF910895CF939B
S1130610DF931F92CDB7DEB7898389818730B1F428
S11306208BE290E02BE230E0F9012081622F2981F6
S1130630422F50E021E030E002C0220F331F4A95E0
S1130640E2F720952623FC01208315C081E390E086
S113065021E330E0F9012081622F2981422F50E00B
S113066021E030E002C0220F331F4A95E2F72095C3
S11306702623FC01208300000F90DF91CF91089581
S1130680CF93DF931F92CDB7DEB7898389818730FB
S1130690A9F48BE290E02BE230E0F9012081622F93
S11306A02981422F50E021E030E002C0220F331FA5
S11306B04A95E2F7262BFC01208314C081E390E0E5
S11306C021E330E0F9012081622F2981422F50E09B
S11306D021E030E002C0220F331F4A95E2F7262BB7
S11306E0FC01208300000F90DF91CF910895CF93F8
S11306F0DF931F921F92CDB7DEB789836A838A8105
S11307008823A9F081E390E021E330E0F90120811E
S1130710622F2981422F50E021E030E002C0220FF5
S1130720331F4A95E2F7262BFC01208315C081E391
S113073090E021E330E0F9012081622F2981422FEA
S113074050E021E030E002C0220F331F4A95E2F767
S113075020952623FC01208300000F900F90DF9149
S1130760CF910895CF93DF931F921F92CDB7DEB739
S113077089836A838981882321F46A8181E0B7DFD0
S113078003C06A8187E0B3DF8981882361F48091A3
S1130790560690915706A0915806B0915906BC018F
S11307A0CD014BDE0BC080915A0690915B06A0915F
S11307B05C06B0915D06BC01CD01B4DE00000F9073
S11307C00F90DF91CF910895CF93DF9300D000D0A5
S11307D0CDB7DEB789836A832B833C834D835E83E5
S11307E06A818981BFDF8981882369F48B819C8137
S11307F0AD81BE818093280690932906A0932A0692
S1130800B0932B060CC08B819C81AD81BE818093FB
S11308102C0690932D06A0932E06B0932F06898163
S1130820882321F481E08093300603C081E0809323
S11308303106000026960FB6F894DEBF0FBECDBF7A
S1130840DF91CF910895CF93DF931F92CDB7DEB799
S1130850898380EC90E0FC018081882F90E0807295
S1130860992721E0892B09F020E0222309F0F1CF18
S113087086EC90E02981FC01208300000F90DF9139
S1130880CF910895CF93DF931F921F92CDB7DEB718
S11308909A83898389819A81FC018081882359F014
S11308A089819A81FC018081CEDF89819A810196B8
S11308B09A838983EFCF00000F900F90DF91CF913F
S11308C00895CF92DF92EF92FF920F931F93CF93ED
S11308D0DF93CDB7DEB72E970FB6F894DEBF0FBE09
S11308E0CDBF89E0E0E0F2E0A6E1B5E001900D9231
S11308F08A95E1F786E195E0C5DF85E290E025E29F
S113090030E0F901308120E82327FC01208319829B
S11309101A821B821C821D821E828AE1E9E0F2E0B7
S1130920A6E1B5E001900D928A95E1F786E195E0A4
S1130930A9DF9091190681E0992309F080E08823CA
S113094009F4A1C09091170681E0992309F480E08D
S1130950882379F380911806882F90E08A5E9B4F54
S1130960FC01908181E09E3209F080E0882311F03F
S113097081E089838981882369F58B819C81AD819C
S1130980BE81880F991FAA1FBB1F9C01AD01220FB6
S1130990331F441F551F220F331F441F551F280F99
S11309A0391F4A1F5B1F80911806882F90E08A5ECA
S11309B09B4FFC018081882F90E0C097092E000C8A
S11309C0AA0BBB0B820F931FA41FB51F8B839C83A1
S11309D0AD83BE8380911806882F90E08A5E9B4F7A
S11309E0FC0180818E3229F08981813011F481E00B
S11309F001C080E08823E1F1809142069091430692
S1130A00A0914406B091450620E030E040E251E474
S1130A10BC01CD010E94B013DC01CB016C017D014E
S1130A2080911806882F90E08A5E9B4FFC0180819C
S1130A30882F90E0C097092E000CAA0BBB0BBC01B9
S1130A40CD010E94BC12DC01CB019C01AD01C701A8
S1130A50B6010E94AB11DC01CB0180934206909356
S1130A604306A0934406B09345068A818F5F8A8328
S1130A70809118068F5F8093180680911706815025
S1130A80809317065FCF8A818823F1F08091420614
S1130A9090914306A0914406B091450620E030E0D1
S1130AA040E251E4BC01CD010E942612DC01CB01DD
S1130AB08093420690934306A0934406B093450660
S1130AC08A8181508A83DFCF6B817C818D819E8175
S1130AD00E94BA127B018C018091420690914306D8
S1130AE0A0914406B09145069C01AD01C801B7012F
S1130AF00E94AB11DC01CB01809342069093430624
S1130B00A0934406B09345061092190680914206BC
S1130B1090914306A0914406B09145062B2F2F9344
S1130B202A2F2F93292F2F938F9383E292E0892FDB
S1130B308F9383E292E08F9386E195E0892F8F93E0
S1130B4086E195E08F930E94E8188DB79EB70896CA
S1130B500FB6F894DEBF0FBECDBF86E195E092DEFE
S1130B6086E1E3E4F2E0A6E1B5E001900D928A9516
S1130B70E1F786E195E086DE9091190681E09923FC
S1130B8009F080E0882309F448C09091170681E0B9
S1130B90992309F480E0882379F380913A069091AF
S1130BA03B06A0913C06B0913D06880F991FAA1FF1
S1130BB0BB1F9C01AD01220F331F441F551F220F81
S1130BC0331F441F551F280F391F4A1F5B1F809175
S1130BD01806882F90E08A5E9B4FFC018081882F45
S1130BE090E0C097092E000CAA0BBB0B820F931F39
S1130BF0A41FB51F80933A0690933B06A0933C062E
S1130C00B0933D06809118068F5F809318068091FB
S1130C101706815080931706B8CF10921906809159
S1130C203A0690913B06A0913C06B0913D062B2FCD
S1130C302F932A2F2F93292F2F938F9389E592E0B7
S1130C40892F8F9389E592E08F9386E195E0892F30
S1130C508F9386E195E08F930E94E8188DB79EB735
S1130C6008960FB6F894DEBF0FBECDBF86E195E0BF
S1130C7009DE83E1E8E7F2E0A6E1B5E001900D9238
S1130C808A95E1F786E195E0FDDD9091190681E012
S1130C90992309F080E0882309F448C0909117064D
S1130CA081E0992309F480E0882379F380913E065A
S1130CB090913F06A0914006B0914106880F991F7C
S1130CC0AA1FBB1F9C01AD01220F331F441F551FD8
S1130CD0220F331F441F551F280F391F4A1F5B1F44
S1130CE080911806882F90E08A5E9B4FFC018081DA
S1130CF0882F90E0C097092E000CAA0BBB0B820F23
S1130D00931FA41FB51F80933E0690933F06A093A4
S1130D104006B0934106809118068F5F80931806B1
S1130D2080911706815080931706B8CF1092190648
S1130D3080913E0690913F06A0914006B0914106F5
S1130D402B2F2F932A2F2F93292F2F938F938BE8B9
S1130D5092E0892F8F938BE892E08F9386E195E060
S1130D60892F8F9386E195E08F930E94E8188DB7C1
S1130D709EB708960FB6F894DEBF0FBECDBF86E1CE
S1130D8095E080DD19821A821F82188619861A86D8
S1130D908CE1E7EAF2E0A6E1B5E001900D928A95D4
S1130DA0E1F786E195E06EDD9091190681E09923E3
S1130DB009F080E0882309F4A1C09091170681E02E
S1130DC0992309F480E0882379F380911806882F09
S1130DD090E08A5E9B4FFC01908181E09E3209F095
S1130DE080E0882311F081E089838981882369F573
S1130DF08F819885A985BA85880F991FAA1FBB1F63
S1130E009C01AD01220F331F441F551F220F331FB6
S1130E10441F551F280F391F4A1F5B1F8091180656
S1130E20882F90E08A5E9B4FFC018081882F90E0A0
S1130E30C097092E000CAA0BBB0B820F931FA41F93
S1130E40B51F8F839887A987BA8780911806882F42
S1130E5090E08A5E9B4FFC0180818E3229F089816B
S1130E60813011F481E001C080E08823E1F18091B8
S1130E70460690914706A0914806B091490620E0A5
S1130E8030E040E251E4BC01CD010E94B013DC012A
S1130E90CB016C017D0180911806882F90E08A5E59
S1130EA09B4FFC018081882F90E0C097092E000C95
S1130EB0AA0BBB0BBC01CD010E94BC12DC01CB010F
S1130EC09C01AD01C701B6010E94AB11DC01CB014D
S1130ED08093460690934706A0934806B09349062C
S1130EE08A818F5F8A83809118068F5F80931806AA
S1130EF0809117068150809317065FCF8A818823DB
S1130F00F1F08091460690914706A0914806B09171
S1130F10490620E030E040E251E4BC01CD010E94EA
S1130F202612DC01CB018093460690934706A093DA
S1130F304806B09349068A8181508A83DFCF6F8146
S1130F40788589859A850E94BA127B018C018091EB
S1130F50460690914706A0914806B09149069C0127
S1130F60AD01C801B7010E94AB11DC01CB01809334
S1130F70460690934706A0934806B09349061092FC
S1130F8019068091460690914706A0914806B091B3
S1130F9049062B2F2F932A2F2F93292F2F938F938B
S1130FA083EC92E0892F8F9383EC92E08F9386E118
S1130FB095E0892F8F9386E195E08F930E94E8183E
S1130FC08DB79EB708960FB6F894DEBF0FBECDBF9F
S1130FD086E195E057DC19821A821B861C861D86E1
S1130FE01E8684E2E9EEF2E0A6E1B5E001900D92FE
S1130FF08A95E1F786E195E045DC9091190681E058
S1131000992309F080E0882309F4A1C09091170680
S113101081E0992309F480E0882379F3809118060C
S1131020882F90E08A5E9B4FFC01908181E09E3284
S113103009F080E0882311F081E089838981882385
S113104069F58B859C85AD85BE85880F991FAA1F80
S1131050BB1F9C01AD01220F331F441F551F220FDC
S1131060331F441F551F280F391F4A1F5B1F8091D0
S11310701806882F90E08A5E9B4FFC018081882FA0
S113108090E0C097092E000CAA0BBB0B820F931F94
S1131090A41FB51F8B879C87AD87BE8780911806D8
S11310A0882F90E08A5E9B4FFC0180818E3229F06C
S11310B08981813011F481E001C080E08823E1F16D
S11310C080914A0690914B06A0914C06B0914D0632
S11310D020E030E040E251E4BC01CD010E94B013B5
S11310E0DC01CB016C017D0180911806882F90E012
S11310F08A5E9B4FFC018081882F90E0C097092E67
S1131100000CAA0BBB0BBC01CD010E94BC12DC017C
S1131110CB019C01AD01C701B6010E94AB11DC01FA
S1131120CB0180934A0690934B06A0934C06B09350
S11311304D068A818F5F8A83809118068F5F809322
S11311401806809117068150809317065FCF8A8115
S11311508823F1F080914A0690914B06A0914C06A9
S1131160B0914D0620E030E040E251E4BC01CD01F5
S11311700E942612DC01CB0180934A0690934B0611
S1131180A0934C06B0934D068A8181508A83DFCFA9
S11311906B857C858D859E850E94BA127B018C01AE
S11311A080914A0690914B06A0914C06B0914D0651
S11311B09C01AD01C801B7010E94AB11DC01CB0158
S11311C080934A0690934B06A0934C06B0934D0629
S11311D01092190680914A0690914B06A0914C06F4
S11311E0B0914D062B2F2F932A2F2F93292F2F9316
S11311F08F938DE093E0892F8F938DE093E08F930D
S113120086E195E0892F8F9386E195E08F930E9484
S1131210E8188DB79EB708960FB6F894DEBF0FBED8
S1131220CDBF86E195E02EDB00002E960FB6F89434
S1131230DEBF0FBECDBFDF91CF911F910F91FF9005
S1131240EF90DF90CF900895CF92DF92EF92FF92CC
S11312500F931F93CF93DF93CDB7DEB7AF970FB63E
S1131260F894DEBF0FBECDBF80E090E00E947419F9
S11312708093150481E290E0FC01108282E290E008
S1131280FC01108284E290E020E8FC01208385E2E6
S113129090E0FC01108287E290E0FC01108288E279
S11312A090E0FC0110828AE290E020E8FC012083B7
S11312B08BE290E0FC0110828DE290E022E0FC01E0
S11312C020838EE290E0FC01108280E390E027EC22
S11312D0FC01208381E390E0FC01108283E390E031
S11312E0FC01108284E390E0FC01108281E091E033
S11312F0FC01108282E091E0FC01108284E091E024
S1131300FC01108285E091E0FC01108287E091E00D
S1131310FC01108288E091E0FC0110828AE091E0F7
S1131320FC0110828BE091E0FC01108284E490E0E7
S1131330FC01108285E490E0FC01108286E490E0D8
S1131340FC01108287E490E0FC01108288E490E0C4
S1131350FC01108280E890E0FC01108281E890E0BA
S1131360FC01108285E890E0FC01108284E890E0A2
S1131370FC01108287E890E0FC01108286E890E08E
S1131380FC01108289E890E0FC01108288E890E07A
S1131390FC0110828BE890E0FC0110828AE890E066
S11313A0FC0110828DE890E0FC0110828CE890E052
S11313B0FC01108286EB90E0FC01108280EB90E04F
S11313C0FC01108281EB90E0FC01108282EB90E042
S11313D0FC01108283EB90E0FC01108284EB90E02E
S11313E0FC01108280E990E0FC01108281E990E028
S11313F0FC01108285E990E0FC01108284E990E010
S1131400FC01108287E990E0FC01108286E990E0FB
S1131410FC01108289E990E0FC01108288E990E0E7
S1131420FC0110828BE990E0FC0110828AE990E0D3
S1131430FC0110828DE990E0FC0110828CE990E0BF
S1131440FC01108280EA90E0FC01108281EA90E0C5
S1131450FC01108285EA90E0FC01108284EA90E0AD
S1131460FC01108287EA90E0FC01108286EA90E099
S1131470FC01108289EA90E0FC01108288EA90E085
S1131480FC0110828BEA90E0FC0110828AEA90E071
S1131490FC0110828DEA90E0FC0110828CEA90E05D
S11314A0FC01108280E291E0FC01108281E291E073
S11314B0FC01108285E291E0FC01108284E291E05B
S11314C0FC01108287E291E0FC01108286E291E047
S11314D0FC01108289E291E0FC01108288E291E033
S11314E0FC0110828BE291E0FC0110828AE291E01F
S11314F0FC0110828DE291E0FC0110828CE291E00B
S1131500FC0110828EE690E0FC0110828FE690E0F0
S1131510FC01108280E790E0FC01108281E790E0FA
S1131520FC01108282E790E0FC01108283E790E0E6
S1131530FC01108289E690E0FC0110828AE690E0CA
S1131540FC0110828DE390E0FC0110828BE690E0B8
S1131550FC0110828CE690E0FC0110828DE690E0A4
S1131560FC01108288E690E0FC01108280EC90E09F
S1131570FC01108281EC90E028E9FC01208382ECDC
S113158090E026E0FC01208385EC90E0FC011082D1
S113159084EC90E027E6FC01208389EC90E0FC01D8
S11315A0108281ED90E0FC01108281E391E0FC0166
S11315B0108280E590E020E8FC0120838BE790E036
S11315C0FC0110828FE790E0FC0110828AE790E032
S11315D0FC0110828CE490E0FC0110828CEB90E022
S11315E0FC011082789487E04BD882E049D869D90D
S11315F080913A0690913B06A0913C06B0913D063D
S1131600BC01CD01B7D77B018C018091420690913A
S11316104306A0914406B09145069C01AD01C80162
S1131620B70114D7DC01CB01BC01CD01F8D6DC0134
S1131630CB01BC01CD0172D7DC01CB0180934E06F6
S113164090934F06A0935006B093510619821A82C4
S11316501B821C8280914E0690914F06A0915006E9
S1131660B091510689839A83AB83BC8380913E06F3
S113167090913F06A0914006B0914106BC01CD0176
S113168079D77B018C018091420690914306A09109
S11316904406B09145069C01AD01C801B7010E9402
S11316A0B013DC01CB016C017D0180913A0690916D
S11316B03B06A0913C06B0913D06BC01CD015AD732
S11316C0DC01CB019C01AD01C701B601BFD6DC0131
S11316D0CB01BC01CD01A3D6DC01CB01BC01CD0102
S11316E01DD7DC01CB018093520690935306A0933F
S11316F05406B093550680E991E0A0E0B0E08093F1
S1131700320690933306A0933406B0933506809145
S1131710460690914706A0914806B09149069C015F
S1131720AD0160E070E088E493E490D6DC01CB0185
S11317307C018D018091420690914306A09144065C
S1131740B09145069C01AD01C801B7010E94B013D8
S1131750DC01CB019C01AD01BC01CD01FCD5DC0158
S1131760CB01BC01CD01DAD6DC01CB018093360676
S113177090933706A0933806B093390680914A06B1
S113178090914B06A0914C06B0914D0620E030E0BC
S113179048E453E4BC01CD01E3D7DC01CB019C0157
S11317A0AD01BC01CD01D7D5DC01CB01BC01CD011C
S11317B0B5D6DC01CB018093560690935706A093CF
S11317C05806B093590680914A0690914B06A09111
S11317D04C06B0914D0620E030E048E453E4BC01EF
S11317E0CD01BED7DC01CB019C01AD01BC01CD0113
S11317F0B2D5DC01CB01BC01CD0190D6DC01CB011B
S113180080935A0690935B06A0935C06B0935D06A2
S113181080914E0690914F06A0915006B0915106CA
S11318202B2F2F932A2F2F93292F2F938F9385E3D9
S113183093E0892F8F9385E393E08F9386E195E07E
S1131840892F8F9386E195E08F930E94E8188DB7D6
S11318509EB708960FB6F894DEBF0FBECDBF86E1E3
S113186095E010D88091520690915306A0915406A9
S1131870B09155062B2F2F932A2F2F93292F2F9377
S11318808F938FE493E0892F8F938FE493E08F936A
S113189086E195E0892F8F9386E195E08F930E94EE
S11318A0E818EDB7FEB738960FB6F894DEBF0FBE52
S11318B0CDBF86E195E00E9442048091320690916A
S11318C03306A0913406B09135062B2F2F932A2F7F
S11318D02F93292F2F938F9384E693E0892F8F934F
S11318E084E693E08F9386E195E0892F8F9386E1D8
S11318F095E08F930E94E8188DB79EB708960FB6AF
S1131900F894DEBF0FBECDBF86E195E00E9442048D
S11319108091360690913706A0913806B091390629
S11319202B2F2F932A2F2F93292F2F938F938FE7CA
S113193093E0892F8F938FE793E08F9386E195E06F
S1131940892F8F9386E195E08F930E94E818EDB775
S1131950FEB738960FB6F894DEBF0FBECDBF86E152
S113196095E00E9442048091560690915706A091FA
S11319705806B09159062B2F2F932A2F2F93292FD6
S11319802F938F938AE993E0892F8F938AE993E0C9
S11319908F9386E195E0892F8F9386E195E08F936D
S11319A00E94E8188DB79EB708960FB6F894DEBF6C
S11319B00FBECDBF86E195E00E94420480915A0695
S11319C090915B06A0915C06B0915D062B2F2F933E
S11319D02A2F2F93292F2F938F938DEB93E0892F09
S11319E08F938DEB93E08F9386E195E0892F8F930E
S11319F086E195E08F930E94E818EDB7FEB738961C
S1131A000FB6F894DEBF0FBECDBF86E195E00E940D
S1131A1042041D828D81882309F0CAC188E0E0EE6A
S1131A20F3E0A6E1B5E001900D928A95E1F786E135
S1131A3095E00E94420487E00E94070382E00E942E
S1131A400703109214048091520690915306A091BA
S1131A505406B0915506892B8A2B8B2B09F493C11C
S1131A608091520690915306A0915406B091550668
S1131A702B2F2F932A2F2F93292F2F938F9388EE79
S1131A8093E0892F8F9388EE93E08F9386E195E01E
S1131A90892F8F9386E195E08F930E94E8188DB784
S1131AA09EB708960FB6F894DEBF0FBECDBF86E191
S1131AB095E00E94420489819A81AB81BC81892B83
S1131AC08A2B8B2B09F435C18C818F938B818F9357
S1131AD08A818F9389818F938CEF93E0892F8F93E1
S1131AE08CEF93E08F9386E195E0892F8F9386E1C5
S1131AF095E08F930E94E818EDB7FEB738960FB6BD
S1131B00F894DEBF0FBECDBF86E195E00E9442048B
S1131B108091320690913306A0913406B091350637
S1131B209C01AD0160E080E00E94E40390913006E6
S1131B3081E0992309F480E0882309F0F7CF80E05D
S1131B4090E0A0E8BFE38E879F87A88BB98B20E045
S1131B5030E04AE755E46E857F858889998900D607
S1131B60DC01CB018A8B9B8BAC8BBD8B20E030E0FE
S1131B7040E85FE36A897B898C899D8963D48823E3
S1131B802CF481E090E09F8B8E8B3AC020E03FEFF5
S1131B904FE757E46A897B898C899D89DDD51816BE
S1131BA034F520E030E040E251E46E857F85888999
S1131BB09989D6D5DC01CB01BC01CD01AFD4DC01C0
S1131BC0CB019F8B8E8B8E899F89892B19F180E99C
S1131BD091E0998F888F888D998D0197F1F7998F6E
S1131BE0888F8E899F8901979F8B8E8BECCF6A8912
S1131BF07B898C899D8992D4DC01CB019F8B8E8B50
S1131C008E899F899B8F8A8F8A8D9B8D0197F1F78F
S1131C109B8F8A8F8091360690913706A091380663
S1131C20B0913906609114049C01AD0186E00E94D4
S1131C30E4039091310681E0992309F480E088233C
S1131C4009F0F7CF80E090E0A0E8BFE38E839F83A4
S1131C50A887B98720E030E04AE755E46E817F81A8
S1131C60888599857DD5DC01CB018C8F9D8FAE8FC6
S1131C70BF8F20E030E040E85FE36C8D7D8D8E8D7A
S1131C809F8DE0D388232CF481E090E099A388A36E
S1131C903AC020E03FEF4FE757E46C8D7D8D8E8D89
S1131CA09F8D5AD5181634F520E030E040E251E417
S1131CB06E817F818885998553D5DC01CB01BC0178
S1131CC0CD012CD4DC01CB0199A388A388A199A1CF
S1131CD0892B19F180E991E09BA38AA38AA19BA196
S1131CE00197F1F79BA38AA388A199A1019799A3CE
S1131CF088A3ECCF6C8D7D8D8E8D9F8D0FD4DC01F0
S1131D00CB0199A388A388A199A19DA38CA38CA19D
S1131D109DA10197F1F79DA38CA389819A81AB8141
S1131D20BC810197A109B10989839A83AB83BC83E0
S1131D30C2CE80911404882321F481E0809314049A
S1131D4002C01092140480914E0690914F06A09107
S1131D505006B091510689839A83AB83BC838091EA
S1131D60520690915306A0915406B09155060197DE
S1131D70A109B1098093520690935306A093540687
S1131D80B093550660CE87E00E94400382E00E9433
S1131D90400387E0ECE0F4E0A6E1B5E001900D92A9
S1131DA08A95E1F786E195E00E94420481E08D8303
S1131DB080E090E0A8ECB2E48A879B87AC87BD877B
S1131DC020E030E04AE755E46A857B858C859D8573
S1131DD0C7D4DC01CB018EA39FA3A8A7B9A720E099
S1131DE030E040E85FE36EA17FA188A599A52AD3DE
S1131DF088232CF481E090E09BA78AA73BC020E0D5
S1131E003FEF4FE757E46EA17FA188A599A5A4D41D
S1131E1018163CF520E030E040E251E46A857B8509
S1131E208C859D859DD4DC01CB01BC01CD0176D38D
S1131E30DC01CB019BA78AA78AA59BA5892B09F462
S1131E40E9CD80E991E09DA78CA78CA59DA501977C
S1131E50F1F79DA78CA78AA59BA501979BA78AA7A5
S1131E60EBCF6EA17FA188A599A558D3DC01CB0146
S1131E709BA78AA78AA59BA59FA78EA78EA59FA58A
S1131E800197F1F79FA78EA7C5CD1F920F920090DF
S1131E905F000F92112400905B000F922F933F93E9
S1131EA04F935F936F937F938F939F93AF93BF935E
S1131EB0EF93FF93CF93DF93CDB7DEB780911606F0
S1131EC0882F90E026EC30E0F90120818A5E9B4F58
S1131ED0FC012083809116068F5F80931606809103
S1131EE017068F5F809317060E9415010000DF918B
S1131EF0CF91FF91EF91BF91AF919F918F917F917E
S1131F006F915F914F913F912F910F9000925B00E1
S1131F100F9000925F000F901F9018951F920F92E0
S1131F2000905F000F92112400905B000F922F939A
S1131F303F934F935F936F937F938F939F93AF934D
S1131F40BF93EF93FF93CF93DF93CDB7DEB7909119
S1131F501C0681E0992309F480E0882329F080910C
S1131F601C06815080931C0690911C0681E09923E5
S1131F7009F080E0882309F4A4C090911D0681E053
S1131F80992309F480E0882309F462C028E830E04A
S1131F908091200690912106A0912206B0912306FB
S1131FA0F9019183808380911A068F5F80931A06CA
S1131FB090911A0681E0923009F080E0882309F4B8
S1131FC080C010921A0688E890E02FEF3FEFFC01E2
S1131FD03183208380911D0680931C0690913006E6
S1131FE081E0913009F080E0882339F1809128065E
S1131FF090912906A0912A06B0912B060197A10978
S1132000B1098093280690932906A0932A06B093D9
S11320102B068091280690912906A0912A06B0915A
S11320202B0621E0892B8A2B8B2B09F020E022231D
S113203021F0109230060E94370181E390E021E301
S113204030E0F901308121E02327FC01208339C0ED
S11320509091300681E0913009F080E0882339F1D5
S11320608091280690912906A0912A06B0912B060A
S11320700197A109B1098093280690932906A0939A
S11320802A06B0932B068091280690912906A091E8
S11320902A06B0912B0621E0892B8A2B8B2B09F081
S11320A020E0222321F0109230060E94370181E3C0
S11320B090E021E330E0F901308121E02327FC01A5
S11320C0208385E890E0FC01108284E890E0FC0124
S11320D010820000DF91CF91FF91EF91BF91AF91FA
S11320E09F918F917F916F915F914F913F912F912C
S11320F00F9000925B000F9000925F000F901F9072
S113210018951F920F9200905F000F921124009077
S11321105B000F922F933F934F935F936F937F9343
S11321208F939F93AF93BF93EF93FF93CF93DF93DB
S1132130CDB7DEB790911E0681E0992309F480E0C3
S1132140882329F080911E06815080931E06909169
S11321501E0681E0992309F080E0882309F4A4C0D5
S113216090911F0681E0992309F480E0882309F403
S113217062C028E930E08091240690912506A09160
S11321802606B0912706F9019183808380911B066E
S11321908F5F80931B0690911B0681E0923009F0BB
S11321A080E0882309F480C010921B0688E990E03F
S11321B02FEF3FEFFC013183208380911F06809332
S11321C01E069091310681E0913009F080E0882369
S11321D039F180912C0690912D06A0912E06B09194
S11321E02F060197A109B10980932C0690932D061F
S11321F0A0932E06B0932F0680912C0690912D0665
S1132200A0912E06B0912F0621E0892B8A2B8B2BCF
S113221009F020E0222321F0109231060E94AA0145
S113222081E390E021E330E0F901308120E42327C9
S1132230FC01208339C09091310681E0913009F08E
S113224080E0882339F180912C0690912D06A0918D
S11322502E06B0912F060197A109B10980932C068F
S113226090932D06A0932E06B0932F0680912C06F2
S113227090912D06A0912E06B0912F0621E0892B76
S11322808A2B8B2B09F020E0222321F010923106B7
S11322900E94AA0181E390E021E330E0F90130815A
S11322A020E42327FC01208385E990E0FC011082CF
S11322B084E990E0FC0110820000DF91CF91FF914E
S11322C0EF91BF91AF919F918F917F916F915F91AA
S11322D04F913F912F910F9000925B000F900092CD
S11322E05F000F901F9018951F920F9200905F004F
S11322F00F92112400905B000F922F933F934F9302
S11323005F936F937F938F939F93AF93BF93EF9359
S1132310FF93CF93DF93CDB7DEB781E080931906A7
S11323200E942B010000DF91CF91FF91EF91BF91AB
S1132330AF919F918F917F916F915F914F913F9159
S11323402F910F9000925B000F9000925F000F900E
S11323501F9018955058BB27AA270ED0ACC19DD109
S113236030F0A2D120F031F49F3F11F41EF492C159
S11323700EF4E095E7FB5FC1E92FAED180F3BA1705
S1132380620773078407950718F071F49EF5DDC1A1
S11323900EF4E0950B2EBA2FA02D0B01B90190017C
S11323A00C01CA01A0011124FF27591B99F0593FC0
S11323B050F4503E68F11A16F040A22F232F342F08
S11323C04427585FF3CF469537952795A795F04056
S11323D05395C9F77EF41F16BA0B620B730B840B6B
S11323E0BAF09150A1F0FF0FBB1F661F771F881F23
S11323F0C2F70EC0BA0F621F731F841F48F487957B
S113240077956795B795F7959E3F08F0B3CF939569
S1132410880F08F09927EE0F9795879508957ED138
S113242080F09F3740F491110EF490C160E070E0A9
S113243080E89FE3089526F01B16611D711D811D20
S113244000C11AC1D4D008F481E008950CD033C17E
S11324502BD140F022D130F021F45F3F19F0EBC0D2
S1132460511174C117C138D198F39923C9F3552375
S1132470B1F3951B550BBB27AA2762177307840773
S113248038F09F5F5F4F220F331F441FAA1FA9F329
S113249033D00E2E3AF0E0E830D091505040E6951B
S11324A0001CCAF729D0FE2F27D0660F771F881F7C
S11324B0BB1F261737074807AB07B0E809F0BB0B6B
S11324C0802DBF01FF2793585F4F2AF09E3F51058F
S11324D068F0B1C03BC15F3FECF3983EDCF38695F6
S11324E077956795B795F7959F5FC9F7880F911D05
S11324F09695879597F90895E1E0660F771F881FF1
S1132500BB1F621773078407BA0720F0621B730BA3
S1132510840BBA0BEE1F88F7E0950895E5D088F098
S11325209F5790F0B92F9927B751A0F0D1F0660FBB
S1132530771F881F991F1AF0BA95C9F712C0B130D6
S113254081F003D1B1E0089500C1672F782F882767
S1132550B85F39F0B93FCCF3869577956795B39515
S1132560D9F73EF490958095709561957F4F8F4F84
S11325709F4F0895E89409C097FB3EF49095809589
S1132580709561957F4F8F4F9F4F9923A9F0F92F35
S113259096E9BB279395F695879577956795B795B3
S11325A0F111F8CFFAF4BB0F11F460FF1BC06F5F99
S11325B07F4F8F4F9F4F16C0882311F096E911C0AB
S11325C0772321F09EE8872F762F05C0662371F0CC
S11325D096E8862F70E060E02AF09A95660F771FE0
S11325E0881FDAF7880F9695879597F90895990FBC
S11325F00008550FAA0BE0E8FEEF16161706E807C9
S1132600F907C0F012161306E407F50798F0621BE9
S1132610730B840B950B39F40A2661F0232B242BBE
S1132620252B21F408950A2609F4A140A6958FEFDD
S1132630811D811D089597F99F6780E870E060E02F
S11326400895882371F4772321F09850872B762FEF
S113265007C0662311F499270DC09051862B70E0B2
S113266060E02AF09A95660F771F881FDAF7880FC3
S11326709695879597F908959F3F31F0915020F4EE
S1132680879577956795B795880F911D969587954A
S113269097F908959FEF80EC089500240A94161684
S11326A0170618060906089500240A94121613063C
S11326B0140605060895092E0394000C11F48823CA
S11326C052F0BB0F40F4BF2B11F460FF04C06F5FE6
S11326D07F4F8F4F9F4F089557FD9058440F551FBC
S11326E059F05F3F71F04795880F97FB991F61F090
S11326F09F3F79F087950895121613061406551F07
S1132700F2CF4695F1DF08C0161617061806991F72
S1132710F1CF86957105610508940895E5DFA0F071
S1132720BEE7B91788F4BB279F3860F41616B11DAD
S1132730672F782F8827985FF7CF869577956795C9
S1132740B11D93959639C8F30895E894BB2766277D
S11327507727CB0197F908954ADF08F48FEF08959E
S11327600BD0A9CF9ADF28F09FDF18F0952309F04A
S113277062CF90CF1124EACFAFDFA0F3959FD1F3BE
S1132780950F50E0551F629FF001729FBB27F00D1B
S1132790B11D639FAA27F00DB11DAA1F649F662770
S11327A0B00DA11D661F829F2227B00DA11D621FBF
S11327B0739FB00DA11D621F839FA00D611D221F79
S11327C0749F3327A00D611D231F849F600D211D5D
S11327D0822F762F6A2F11249F5750408AF0E1F000
S11327E088234AF0EE0FFF1FBB1F661F771F881F49
S11327F091505040A9F79E3F510570F01CCFA6CFD1
S11328005F3FECF3983EDCF3869577956795B79533
S1132810F795E7959F5FC1F7FE2B880F911D96955D
S1132820879597F908952F923F924F925F926F92F6
S11328307F928F929F92AF92BF92CF92DF92EF924C
S1132840FF920F931F93CF93DF93CDB7DEB76097BB
S11328500FB6F894DEBF0FBECDBF7C011B016A0129
S1132860FC0117821682838181FF2AC39E012F5F98
S11328703F4F3901F7019381F10193FD859193FF56
S113288081911F01882309F417C3853239F493FD1C
S1132890859193FF81911F01853231F4B70190E056
S11328A05BD456016501E6CF10E0512C912CFFE179
S11328B0F915D8F08B3279F038F4803279F083321C
S11328C0A1F4F92DF0612EC08D3261F0803369F4EA
S11328D0292D21602DC0392D3260932E892D8460DD
S11328E0982E2AC0E92DE86015C097FC2DC020ED74
S11328F0280F2A3088F496FE06C03AE0139F200D74
S11329001124122F19C08AE0589E200D1124522E32
S1132910E92DE0629E2E10C08E3231F496FCCCC2BA
S1132920F92DF0649F2E08C08C3621F4292D2068DF
S1132930922E02C0883641F4F10193FD859193FFF4
S113294081911F018111B3CF9BEB980F933020F439
S1132950992D9061805E07C09BE9980F933008F031
S113296059C1992D9F7E96FF16E09F73992E853647
S113297019F49064992E08C0863621F4392F3068F2
S1132980932E02C01111115097FE07C01C3350F44E
S113299044244394410E27E00BC0183038F027E05C
S11329A017E005C027E09CE3492E02C0212F412CEB
S11329B0560184E0A80EB11CF60160817181828108
S11329C09381042DA301DAD26C01F981FC87F0FF15
S11329D002C0F3FF06C091FC06C092FE06C000E2EE
S11329E005C00DE203C00BE201C000E08C858C70D1
S11329F019F0011143C280C297FE10C04C0CFC8533
S1132A00F4FF04C08A81813309F44A94141474F5E0
S1132A1028E0241578F588E0482E2CC096FC2AC0BE
S1132A20812F90E08C159D059CF03CEFC3163FEF81
S1132A30D30674F0892D8068982E0AC0E2E0F0E095
S1132A40EC0FFD1FE10FF11D8081803319F411504B
S1132A501111F4CF97FE0EC044244394410E812FEC
S1132A6090E0C816D9062CF41C1904C044244394DD
S1132A7001C010E097FE06C01C141D0434F4C60106
S1132A80019605C085E090E002C081E090E001116C
S1132A900196112331F0212F30E02F5F3F4F820F39
S1132AA0931F252D30E08217930714F4581A01C0A0
S1132AB0512C892D897041F4552031F0B70180E201
S1132AC090E04AD35A94F8CF002321F0B701802F25
S1132AD090E042D393FC08C0552031F0B70180E365
S1132AE090E03AD35A94F8CF97FE4AC04601D7FEF5
S1132AF002C0812C912CC60188199909F301E80FB1
S1132B00F91FFE87ED87960124193109388B2F8729
S1132B10012F10E01195019511093FEF83169306DB
S1132B2021F4B7018EE290E017D3C814D9044CF015
S1132B308F8598898815990524F4ED85FE85818112
S1132B4001C080E3F1E08F1A91082D853E852F5F47
S1132B503F4F3E872D878016910624F0B70190E001
S1132B60FBD2DBCFC814D90441F49A81963320F404
S1132B70953319F43C8534FF81E3B70190E048C0F4
S1132B808A81813319F09C859F7E9C87B70190E0F0
S1132B90E3D2111105C094FC16C085E690E015C07F
S1132BA0B7018EE290E0D8D21E5F82E001E0080F08
S1132BB0F301E80FF11D8081B70190E0CDD2802FA1
S1132BC00113F4CFE8CF85E490E0B701C5D2D7FC78
S1132BD006C0C114D10441F4EC85E4FF05C0D194CE
S1132BE0C194D1088DE201C08BE2B70190E0B4D268
S1132BF080E32AE0C216D1042CF08F5FFAE0CF1AEA
S1132C00D108F7CFB70190E0A7D2B701C601C096AB
S1132C10A3D249C1833631F0833779F0833509F083
S1132C2052C01FC0560132E0A30EB11CF6018081D0
S1132C30898301E010E0630111C05601F2E0AF0E98
S1132C40B11CF601C080D18096FE03C0612F70E0F4
S1132C5002C06FEF7FEFC60174D28C01F92DFF77AC
S1132C6013C0560122E0A20EB11CF601C080D1802F
S1132C7096FE03C0612F70E002C06FEF7FEFC601C4
S1132C8055D28C01F92DF0689F2EF3FD18C0852DC7
S1132C9090E00817190798F4B70180E290E05CD23D
S1132CA05A94F5CFF60197FC859197FE81916F01B7
S1132CB0B70190E051D251105A94015011090115F5
S1132CC0110581F7F0C0843611F0893659F55601A3
S1132CD097FE09C024E0A20EB11CF6016081718147
S1132CE0828193810AC0F2E0AF0EB11CF6016081CB
S1132CF07181072E000C880B990BF92DFF769F2EFE
S1132D0097FF09C090958095709561957F4F8F4F7F
S1132D109F4FF0689F2E2AE030E0A30187D2C82E8F
S1132D20C6183EC0092D853721F40F7E2AE030E015
S1132D301DC0097F8F3691F018F4883559F0BCC056
S1132D40803719F0883711F0B7C0006104FF09C05B
S1132D50046007C094FE08C0066006C028E030E0A6
S1132D6005C020E130E002C020E132E0560107FF57
S1132D7009C084E0A80EB11CF601608171818281D2
S1132D80938108C0F2E0AF0EB11CF601608171813D
S1132D9080E090E0A3014AD2C82EC6180F77902E87
S1132DA096FE0BC0092D0E7FC11650F494FE0AC086
S1132DB092FC08C0092D0E7E05C0DC2C092D03C031
S1132DC0DC2C01C0D12E04FF0DC0FE01EC0DF11D61
S1132DD08081803311F4097E09C002FF06C0D394B8
S1132DE0D39404C0802F867809F0D39403FD10C0D7
S1132DF000FF06C01C2DD51478F4150D1D190CC048
S1132E00D51450F4B70180E290E0A6D1D394F8CF62
S1132E10D51410F45D1801C0512C04FF0FC0B70184
S1132E2080E390E099D102FF16C001FD03C088E75A
S1132E3090E002C088E590E0B7010CC0802F86784E
S1132E4051F001FF02C08BE201C080E207FD8DE278
S1132E50B70190E081D1C11630F4B70180E390E06E
S1132E607BD11150F8CFCA94F301EC0DF11D808190
S1132E70B70190E071D1C110F6CF15C0F4E0F5159B
S1132E8050F584E0581A93FE1EC0011125C02C850C
S1132E9023FF27C004EE10E0392D3071932EF80182
S1132EA08491811121C0552009F4FCCCB70180E242
S1132EB090E052D15A94F7CFF7018681978123C0CD
S1132EC08FEF9FEF20C0B70180E290E045D15A9484
S1132ED05110F9CFDACF512CB701802F90E03CD1BB
S1132EE0D6CF08EE10E0D8CF91108052B70190E011
S1132EF033D10F5F1F4FD3CF23E0251510F483E0A8
S1132F00C1CF512CC4CF60960FB6F894DEBF0FBE6C
S1132F10CDBFDF91CF911F910F91FF90EF90DF9084
S1132F20CF90BF90AF909F908F907F906F905F9065
S1132F304F903F902F900895A1E21A2EAA1BBB1B1D
S1132F40FD010DC0AA1FBB1FEE1FFF1FA217B30771
S1132F50E407F50720F0A21BB30BE40BF50B661F87
S1132F60771F881F991F1A9469F76095709580954B
S1132F7090959B01AC01BD01CF010895283008F064
S1132F8027E03327DA01990F311D87FD9160009600
S1132F906105710539F432602E5F3D9330E32A9563
S1132FA0E1F708959F3F30F080387105610509F01D
S1132FB03C5F3C5F3D93913008F08068911DDF9346
S1132FC0CF931F930F93FF92EF92192F987F9695AB
S1132FD0E92F96959695E90FFF27EA5BFE4F99270F
S1132FE03327EE24FF24A701E701059008940794F2
S1132FF028F4360FE71EF81E491F511D660F771F70
S1133000881F991F0694A1F70590079428F4E70EEA
S1133010F81E491F561FC11D770F881F991F661F71
S11330200694A1F70590079428F4F80E491F561F3B
S1133030C71FD11D880F991F661F771F0694A1F71C
S11330400590079420F4490F561FC71FD81F990FE6
S1133050661F771F881F0694A9F78491109517702F
S113306041F0D695C79557954795F794E7941A95E7
S1133070C1F7ECEEF0E068941590159135916591E7
S1133080959105907FE27395E118F10A430B560B75
S1133090C90BD009C0F7E10CF11E431F561FC91F0D
S11330A0D01D7EF4703311F48A95E6CFE894015074
S11330B030F0080F0AF40027021708F4202F239594
S11330C0022F7A3328F079E37D932A95E9F710C02B
S11330D07D932A9589F60694979567953795179564
S11330E01794E118F10A430B560BC90BD00998F059
S11330F023957E9173957A3308F070E37C932013C3
S1133100B8F77E9170617D9330F0839571E37D9380
S113311070E32A95E1F71124EF90FF900F911F912E
S1133120CF91DF91992787FD90950895FC01059033
S1133130615070400110D8F7809590958E0F9F1FB5
S11331400895FC016150704001900110D8F78095FA
S113315090958E0F9F1F08950F931F93CF93DF9326
S1133160FB01238121FD03C08FEF9FEF2CC022FFC1
S113317016C046815781248135814217530744F490
S1133180A081B1819D012F5F3F4F318320838C93B8
S1133190268137812F5F3F4F3783268314C08B01ED
S11331A0EC01FB010084F185E02D1995892BE1F6F2
S11331B0D80116968D919C911797019617969C931A
S11331C08E931697CE01DF91CF911F910F910895A1
S11331D00F931F93CF93DF93CDB7DEB72E970FB620
S11331E0F894DEBF0FBECDBF0E891F8986E08C83A5
S11331F01A8309838FEF9FE79E838D83AE01465E1A
S11332005F4F688D798DCE0101960DDBEF81F885D6
S1133210E00FF11F10822E960FB6F894DEBF0FBE9A
S1133220CDBFDF91CF911F910F910895FA01AA2785
S1133230283051F1203181F1E8946F936E7F6E5FF5
S11332407F4F8F4F9F4FAF4FB1E03ED0B4E03CD0A3
S1133250670F781F891F9A1FA11D680F791F8A1F86
S1133260911DA11D6A0F711D811D911DA11D20D0ED
S113327009F468943F912AE0269F11243019305DA7
S11332803193DEF6CF010895462F4770405D419398
S1133290B3E00FD0C9F7F6CF462F4F70405D4A33E5
S11332A018F0495D31FD4052419302D0A9F7EACFAD
S11332B0B4E0A6959795879577956795BA95C9F7DC
S11332C000976105710508959B01AC010A2E0694CF
S11332D05795479537952795BA95C9F7620F731F88
S11332E0841F951FA01D0895F999FECF92BD81BD3D
S10F32F0F89A992780B50895F894FFCF50
S11332FC48656C6C6C6F0A0A004469616D65747284
S113330C756C207361726D656920696E206D6D3FFB
S113331C200A004469616D657472756C2073617266
S113332C6D6569206573746520252E3666206D6D78
S113333C200A004C756E67696D656120626F626965
S113334C6E6569206D6D3F0A004C756E67696D651D
S113335C6120626F62696E656920657374652025EE
S113336C6C75206D6D200A004E756D6172756C2044
S113337C64652073706972653F0A004E756D6172E5
S113338C756C20646520737069726520657374654F
S113339C20256C75200A00436F6566696369656E48
S11333AC74756C206465206465706C6173617265FE
S11333BC3F0A00436F6566696369656E74756C20BA
S11333CC6465206465706C617361726520657374E7
S11333DC6520252E3666200A00566974657A612CA0
S11333EC206E7220646520626F62696E617269205E
S11333FC706520736563756E64613F0A004E7220BC
S113340C646520626F62696E6172692070652073F5
S113341C6563756E6461206573746520252E36664C
S113342C206D6D0A004E72206465206669726520F9
S113343C706520737472617420256C75200A004EBB
S113344C7220646520737472617475726920256CC2
S113345C75200A004E7220646520696D70756C735A
S113346C757269207065205820256C75200A004EF1
S113347C7220646520696D70756C73757269207047
S113348C65205920256C75200A004E722064652035
S113349C696D70756C7375726920706520736563E2
S11334AC756E6461205820256C75200A004E7220BC
S11334BC646520696D70756C737572692070652014
S11334CC736563756E6461205920256C75200A0040
S11334DC53746172740A0A004E725F73747261746D
S11334EC757269203D20256C75210A004E725F6649
S11334FC697265203D20256C75210A00454E4420D7
S107350C210A00008C
S9030000FC
