:10000000F2C0000011C100000FC100000DC10000CE
:100010000BC1000009C1000007C1000005C10000BC
:1000200003C1000001C10000FFC00000FDC00000CE
:10003000FBC00000F9C00000F7C00000F5C00000E0
:10004000F3C000000C94790EEFC00000EDC000007A
:10005000EBC00000E9C00000E7C000000C946B108A
:10006000E3C000000C94300EDFC00000DDC00000D3
:10007000DBC00000D9C00000D7C00000D5C0000020
:100080000C94720FD1C00000CFC00000CDC00000A2
:10009000CBC00000C9C00000C7C00000C5C0000040
:1000A000C3C00000C1C00000BFC00000BDC0000050
:1000B000BBC00000B9C00000B7C00000B5C0000060
:1000C000B3C00000B1C00000AFC00000ADC0000070
:1000D000ABC00000A9C00000A7C00000A5C0000080
:1000E000A3C000006E616E00696E660000407A1069
:1000F000F35A00A0724E18090010A5D4E80000E8D9
:100100007648170000E40B54020000CA9A3B000036
:1001100000E1F505000080969800000040420F00C5
:100120000000A08601000000102700000000E80386
:10013000000000006400000000000A000000000051
:100140000100000000002C76D888DC674F0823DF10
:10015000C1DFAE59E1B1B796E5E3E453C63AE651E3
:10016000997696E8E6C28426EB898C9B62ED407C0A
:100170006FFCEFBC9C9F40F2BAA56FA5F490055AA6
:100180002AF75C936B6CF9676DC11BFCE0E40D47CB
:10019000FEF520E6B500D0ED902E030094357705EE
:1001A0000080841E080000204E0A000000C80C33A6
:1001B0003333330F986E12831141EF8D2114893B35
:1001C000E65516CFFEE6DB18D1844B381BF77C1DB5
:1001D000901DA4BBE424203284725E228100C9F108
:1001E00024ECA1E53D2711241FBECFEFD1E2DEBFF5
:1001F000CDBF00E00CBF13E0A0E0B2E0EAEEF0E318
:1002000000E00BBF02C007900D92A03EB107D9F7E6
:1002100026E0A0EEB3E001C01D92AA32B207E1F7DA
:100220000E9423090C947318EBCECF93DF93CDB7C4
:10023000DEB785E490E025E0FC01208386E490E0D1
:10024000FC0110828EE690E021E0FC01208300009A
:10025000DF91CF910895CF93DF93CDB7DEB785E4DB
:1002600090E0FC0110820000DF91CF910895CF93C0
:10027000DF93CDB7DEB780E890E0FC01108281E823
:1002800090E0FC01108285E890E0FC01108284E897
:1002900090E0FC01108287E890E0FC01108286E883
:1002A00090E0FC01108289E890E0FC01108288E86F
:1002B00090E0FC0110828BE890E0FC0110828AE85B
:1002C00090E0FC0110828DE890E0FC0110828CE847
:1002D00090E0FC0110828FE690E022E0FC01208398
:1002E0000000DF91CF910895CF93DF93CDB7DEB7B4
:1002F00080E890E0FC01108281E890E022E0FC01BF
:10030000208385E890E0FC01108284E890E0FC0105
:10031000108287E890E0FC01108286E890E0FC0102
:1003200010828BE890E0FC0110828AE890E0FC01EA
:1003300010828DE890E0FC0110828CE890E0FC01D6
:1003400010828FE690E022E0FC0120830000DF9124
:10035000CF910895CF93DF93CDB7DEB780E990E0DA
:10036000FC01108281E990E0FC01108285E990E0B7
:10037000FC01108284E990E0FC01108287E990E0A2
:10038000FC01108286E990E0FC01108289E990E08E
:10039000FC01108288E990E0FC0110828BE990E07A
:1003A000FC0110828AE990E0FC0110828DE990E066
:1003B000FC0110828CE990E0FC01108281E790E062
:1003C00022E0FC0120830000DF91CF910895CF93BC
:1003D000DF93CDB7DEB780E990E0FC01108281E9C0
:1003E00090E022E0FC01208385E990E0FC0110828E
:1003F00084E990E0FC01108287E990E0FC01108222
:1004000086E990E0FC0110828BE990E0FC0110820B
:100410008AE990E0FC0110828DE990E0FC011082F5
:100420008CE990E0FC01108281E790E022E0FC0181
:1004300020830000DF91CF910895CF93DF9300D008
:100440001F92CDB7DEB769837A838B839C838981C2
:100450009A81AB81BC819C01AD01220F331F441FE7
:10046000551F80E894E8AEE1B0E0BC01CD010E94E8
:100470009316DA01C9018093EC059093ED05A093E2
:10048000EE05B093EF058091EC059091ED05A091FC
:10049000EE05B091EF051197181619061A061B06FE
:1004A000BCF48091E8058F5F8093E8058091EC05AE
:1004B0009091ED05A091EE05B091EF051197809315
:1004C000EC059093ED05A093EE05B093EF05DBCF1F
:1004D0009091E80581E0992309F080E0882371F08C
:1004E00028E830E08091EC059091ED05A091EE05B3
:1004F000B091EF05F9019183808307C088E890E00F
:100500002FEF3FEFFC01318320838091E80580933A
:10051000E905EADE00000F900F900F900F90DF9139
:10052000CF910895CF93DF9300D01F92CDB7DEB760
:1005300069837A838B839C8389819A81AB81BC8117
:100540009C01AD01220F331F441F551F80E894E822
:10055000AEE1B0E0BC01CD010E949316DA01C90101
:100560008093F0059093F105A093F205B093F30505
:100570008091F0059091F105A091F205B091F305FD
:100580001197181619061A061B06BCF48091EA0585
:100590008F5F8093EA058091F0059091F105A0911D
:1005A000F205B091F30511978093F0059093F10552
:1005B000A093F205B093F305DBCF9091EA0581E0BB
:1005C000992309F080E0882371F028E930E08091D8
:1005D000F0059091F105A091F205B091F305F901B4
:1005E0009183808307C088E990E02FEF3FEFFC0103
:1005F000318320838091EA058093EB05E8DE0000DB
:100600000F900F900F900F90DF91CF910895CF939F
:10061000DF931F92CDB7DEB7898389818730B1F42C
:100620008BE290E02BE230E0F9012081622F2981FA
:10063000422F50E021E030E002C0220F331F4A95E4
:10064000E2F720952623FC01208315C081E390E08A
:1006500021E330E0F9012081622F2981422F50E00F
:1006600021E030E002C0220F331F4A95E2F72095C7
:100670002623FC01208300000F90DF91CF91089585
:10068000CF93DF931F92CDB7DEB7898389818730FF
:10069000A9F48BE290E02BE230E0F9012081622F97
:1006A0002981422F50E021E030E002C0220F331FA9
:1006B0004A95E2F7262BFC01208314C081E390E0E9
:1006C00021E330E0F9012081622F2981422F50E09F
:1006D00021E030E002C0220F331F4A95E2F7262BBB
:1006E000FC01208300000F90DF91CF910895CF93FC
:1006F000DF931F921F92CDB7DEB789836A838A8109
:100700008823A9F081E390E021E330E0F901208122
:10071000622F2981422F50E021E030E002C0220FF9
:10072000331F4A95E2F7262BFC01208315C081E395
:1007300090E021E330E0F9012081622F2981422FEE
:1007400050E021E030E002C0220F331F4A95E2F76B
:1007500020952623FC01208300000F900F90DF914D
:10076000CF910895CF93DF931F921F92CDB7DEB73D
:1007700089836A838981882321F46A8181E0B7DFD4
:1007800003C06A8187E0B3DF8981882361F48091A7
:10079000220690912306A0912406B0912506BC0163
:1007A000CD014BDE0BC08091260690912706A091CB
:1007B0002806B0912906BC01CD01B4DE00000F90DF
:1007C0000F90DF91CF910895CF93DF9300D000D0A9
:1007D000CDB7DEB789836A832B833C834D835E83E9
:1007E0006A818981BFDF8981882369F48B819C813B
:1007F000AD81BE818093F4059093F505A093F60535
:10080000B093F7050CC08B819C81AD81BE81809334
:10081000F8059093F905A093FA05B093FB0589813B
:10082000882321F481E08093FC0503C081E080935C
:10083000FD05000026960FB6F894DEBF0FBECDBFB3
:10084000DF91CF910895CF93DF931F92CDB7DEB79D
:10085000898380EC90E0FC018081882F90E0807299
:10086000992721E0892B09F020E0222309F0F1CF1C
:1008700086EC90E02981FC01208300000F90DF913D
:10088000CF910895CF93DF931F921F92CDB7DEB71C
:100890009A83898389819A81FC018081882359F018
:1008A00089819A81FC018081CEDF89819A810196BC
:1008B0009A838983EFCF00000F900F90DF91CF9143
:1008C0000895CF92DF92EF92FF920F931F93CF93F1
:1008D000DF93CDB7DEB72E970FB6F894DEBF0FBE0D
:1008E000CDBF89E0E0E0F2E0A1EEB4E001900D922E
:1008F0008A95E1F781EE94E0C5DF85E290E025E29C
:1009000030E0F901308120E82327FC01208319829F
:100910001A821B821C821D821E828AE1E9E0F2E0BB
:10092000A1EEB4E001900D928A95E1F781EE94E09A
:10093000A9DF9091E50581E0992309F080E0882303
:1009400009F4A1C09091E20581E0992309F480E0C7
:10095000882379F38091E305882F90E08F519C4F95
:10096000FC01908181E09E3209F080E0882311F043
:1009700081E089838981882369F58B819C81AD81A0
:10098000BE81880F991FAA1FBB1F9C01AD01220FBA
:10099000331F441F551F220F331F441F551F280F9D
:1009A000391F4A1F5B1F8091E305882F90E08F510C
:1009B0009C4FFC018081882F90E0C097092E000C8D
:1009C000AA0BBB0B820F931FA41FB51F8B839C83A5
:1009D000AD83BE838091E305882F90E08F519C4FBB
:1009E000FC0180818E3229F08981813011F481E00F
:1009F00001C080E08823E1F180910E0690910F06FE
:100A0000A0911006B091110620E030E040E251E4E0
:100A1000BC01CD010E94A712DC01CB016C017D015C
:100A20008091E305882F90E08F519C4FFC018081DD
:100A3000882F90E0C097092E000CAA0BBB0BBC01BD
:100A4000CD010E94B311DC01CB019C01AD01C701B6
:100A5000B6010E94A210DC01CB0180930E06909398
:100A60000F06A0931006B09311068A818F5F8A83C8
:100A70008091E3058F5F8093E3058091E2058150CB
:100A80008093E2055FCF8A818823F1F080910E0682
:100A900090910F06A0911006B091110620E030E071
:100AA00040E251E4BC01CD010E941D11DC01CB01EB
:100AB00080930E0690930F06A0931006B093110634
:100AC0008A8181508A83DFCF6B817C818D819E8179
:100AD0000E94B1117B018C0180910E0690910F064E
:100AE000A0911006B09111069C01AD01C801B7019B
:100AF0000E94A210DC01CB0180930E0690930F069A
:100B0000A0931006B09311061092E50580910E0691
:100B100090910F06A0911006B09111062B2F2F93E4
:100B20002A2F2F93292F2F938F9383E292E0892FDF
:100B30008F9383E292E08F9381EE94E0892F8F93DD
:100B400081EE94E08F930E94DF178DB79EB70896D1
:100B50000FB6F894DEBF0FBECDBF81EE94E092DEFB
:100B600086E1E3E4F2E0A1EEB4E001900D928A9513
:100B7000E1F781EE94E086DE9091E50581E099232E
:100B800009F080E0882309F448C09091E20581E0F3
:100B9000992309F480E0882379F3809106069091E7
:100BA0000706A0910806B0910906880F991FAA1F91
:100BB000BB1F9C01AD01220F331F441F551F220F85
:100BC000331F441F551F280F391F4A1F5B1F809179
:100BD000E305882F90E08F519C4FFC018081882F86
:100BE00090E0C097092E000CAA0BBB0B820F931F3D
:100BF000A41FB51F8093060690930706A0930806CE
:100C0000B09309068091E3058F5F8093E30580919F
:100C1000E20581508093E205B8CF1092E5058091FE
:100C2000060690910706A0910806B09109062B2FA1
:100C30002F932A2F2F93292F2F938F9389E592E0BB
:100C4000892F8F9389E592E08F9381EE94E0892F2D
:100C50008F9381EE94E08F930E94DF178DB79EB73C
:100C600008960FB6F894DEBF0FBECDBF81EE94E0BC
:100C700009DE83E1E8E7F2E0A1EEB4E001900D9235
:100C80008A95E1F781EE94E0FDDD9091E50581E044
:100C9000992309F080E0882309F448C09091E20587
:100CA00081E0992309F480E0882379F380910A0692
:100CB00090910B06A0910C06B0910D06880F991F1C
:100CC000AA1FBB1F9C01AD01220F331F441F551FDC
:100CD000220F331F441F551F280F391F4A1F5B1F48
:100CE0008091E305882F90E08F519C4FFC0180811B
:100CF000882F90E0C097092E000CAA0BBB0B820F27
:100D0000931FA41FB51F80930A0690930B06A09310
:100D10000C06B0930D068091E3058F5F8093E30589
:100D20008091E20581508093E205B8CF1092E505ED
:100D300080910A0690910B06A0910C06B0910D06C9
:100D40002B2F2F932A2F2F93292F2F938F938BE8BD
:100D500092E0892F8F938BE892E08F9381EE94E05D
:100D6000892F8F9381EE94E08F930E94DF178DB7C8
:100D70009EB708960FB6F894DEBF0FBECDBF81EECA
:100D800094E080DD19821A821F82188619861A86DD
:100D90008CE1E7EAF2E0A1EEB4E001900D928A95D1
:100DA000E1F781EE94E06EDD9091E50581E0992315
:100DB00009F080E0882309F4A1C09091E20581E068
:100DC000992309F480E0882379F38091E305882F43
:100DD00090E08F519C4FFC01908181E09E3209F0A0
:100DE00080E0882311F081E089838981882369F577
:100DF0008F819885A985BA85880F991FAA1FBB1F67
:100E00009C01AD01220F331F441F551F220F331FBA
:100E1000441F551F280F391F4A1F5B1F8091E30590
:100E2000882F90E08F519C4FFC018081882F90E0AB
:100E3000C097092E000CAA0BBB0B820F931FA41F97
:100E4000B51F8F839887A987BA878091E305882F7C
:100E500090E08F519C4FFC0180818E3229F0898176
:100E6000813011F481E001C080E08823E1F18091BC
:100E7000120690911306A0911406B091150620E079
:100E800030E040E251E4BC01CD010E94A712DC0138
:100E9000CB016C017D018091E305882F90E08F519B
:100EA0009C4FFC018081882F90E0C097092E000C98
:100EB000AA0BBB0BBC01CD010E94B311DC01CB011D
:100EC0009C01AD01C701B6010E94A210DC01CB015B
:100ED0008093120690931306A0931406B093150600
:100EE0008A818F5F8A838091E3058F5F8093E3051A
:100EF0008091E20581508093E2055FCF8A8188234B
:100F0000F1F08091120690911306A0911406B09111
:100F1000150620E030E040E251E4BC01CD010E9422
:100F20001D11DC01CB018093120690931306A09350
:100F30001406B09315068A8181508A83DFCF6F81B2
:100F4000788589859A850E94B1117B018C018091F9
:100F5000120690911306A0911406B09115069C01FB
:100F6000AD01C801B7010E94A210DC01CB01809342
:100F7000120690931306A0931406B09315061092D0
:100F8000E5058091120690911306A0911406B09188
:100F900015062B2F2F932A2F2F93292F2F938F93C3
:100FA00083EC92E0892F8F9383EC92E08F9381EE14
:100FB00094E0892F8F9381EE94E08F930E94DF1746
:100FC0008DB79EB708960FB6F894DEBF0FBECDBFA3
:100FD00081EE94E057DC19821A821B861C861D86DE
:100FE0001E8684E2E9EEF2E0A1EEB4E001900D92FB
:100FF0008A95E1F781EE94E045DC9091E50581E08A
:10100000992309F080E0882309F4A1C09091E205BA
:1010100081E0992309F480E0882379F38091E30546
:10102000882F90E08F519C4FFC01908181E09E328F
:1010300009F080E0882311F081E089838981882389
:1010400069F58B859C85AD85BE85880F991FAA1F84
:10105000BB1F9C01AD01220F331F441F551F220FE0
:10106000331F441F551F280F391F4A1F5B1F8091D4
:10107000E305882F90E08F519C4FFC018081882FE1
:1010800090E0C097092E000CAA0BBB0B820F931F98
:10109000A41FB51F8B879C87AD87BE878091E30512
:1010A000882F90E08F519C4FFC0180818E3229F077
:1010B0008981813011F481E001C080E08823E1F171
:1010C0008091160690911706A0911806B091190606
:1010D00020E030E040E251E4BC01CD010E94A712C3
:1010E000DC01CB016C017D018091E305882F90E04C
:1010F0008F519C4FFC018081882F90E0C097092E72
:10110000000CAA0BBB0BBC01CD010E94B311DC018A
:10111000CB019C01AD01C701B6010E94A210DC0108
:10112000CB018093160690931706A0931806B093F0
:1011300019068A818F5F8A838091E3058F5F809390
:10114000E3058091E20581508093E2055FCF8A81BB
:101150008823F1F08091160690911706A091180649
:10116000B091190620E030E040E251E4BC01CD012D
:101170000E941D11DC01CB01809316069093170687
:10118000A0931806B09319068A8181508A83DFCF15
:101190006B857C858D859E850E94B1117B018C01BC
:1011A0008091160690911706A0911806B091190625
:1011B0009C01AD01C801B701C5D7DC01CB0180930B
:1011C000160690931706A0931806B093190610926E
:1011D000E5058091160690911706A0911806B0912A
:1011E00019062B2F2F932A2F2F93292F2F938F936D
:1011F0008DE093E0892F8F938DE093E08F9381EEC4
:1012000094E0892F8F9381EE94E08F930E94DF17F3
:101210008DB79EB708960FB6F894DEBF0FBECDBF50
:1012200081EE94E02FDB00002E960FB6F894DEBF1F
:101230000FBECDBFDF91CF911F910F91FF90EF9027
:10124000DF90CF900895CF92DF92EF92FF920F93AD
:101250001F93CF93DF93CDB7DEB7A0970FB6F89467
:10126000DEBF0FBECDBF80E090E00E946B18809380
:10127000E00381E290E0FC01108282E290E0FC0158
:10128000108284E290E020E8FC01208385E290E077
:10129000FC01108287E290E0FC01108288E290E07D
:1012A000FC0110828AE290E020E8FC0120838BE2BE
:1012B00090E0FC0110828DE290E022E0FC012083AE
:1012C0008EE290E0FC01108280E390E027ECFC01CC
:1012D000208381E390E0FC01108283E390E0FC0135
:1012E000108284E390E0FC01108281E091E0FC0137
:1012F000108282E091E0FC01108284E091E0FC0128
:10130000108285E091E0FC01108287E091E0FC0111
:10131000108288E091E0FC0110828AE091E0FC01FB
:1013200010828BE091E0FC01108284E490E0FC01EB
:10133000108285E490E0FC01108286E490E0FC01DC
:10134000108287E490E0FC01108288E490E0FC01C8
:10135000108280E890E0FC01108281E890E0FC01BE
:10136000108285E890E0FC01108284E890E0FC01A6
:10137000108287E890E0FC01108286E890E0FC0192
:10138000108289E890E0FC01108288E890E0FC017E
:1013900010828BE890E0FC0110828AE890E0FC016A
:1013A00010828DE890E0FC0110828CE890E0FC0156
:1013B000108286EB90E0FC01108280EB90E0FC0153
:1013C000108281EB90E0FC01108282EB90E0FC0146
:1013D000108283EB90E0FC01108284EB90E0FC0132
:1013E000108280E990E0FC01108281E990E0FC012C
:1013F000108285E990E0FC01108284E990E0FC0114
:10140000108287E990E0FC01108286E990E0FC01FF
:10141000108289E990E0FC01108288E990E0FC01EB
:1014200010828BE990E0FC0110828AE990E0FC01D7
:1014300010828DE990E0FC0110828CE990E0FC01C3
:10144000108280EA90E0FC01108281EA90E0FC01C9
:10145000108285EA90E0FC01108284EA90E0FC01B1
:10146000108287EA90E0FC01108286EA90E0FC019D
:10147000108289EA90E0FC01108288EA90E0FC0189
:1014800010828BEA90E0FC0110828AEA90E0FC0175
:1014900010828DEA90E0FC0110828CEA90E0FC0161
:1014A000108280E291E0FC01108281E291E0FC0177
:1014B000108285E291E0FC01108284E291E0FC015F
:1014C000108287E291E0FC01108286E291E0FC014B
:1014D000108289E291E0FC01108288E291E0FC0137
:1014E00010828BE291E0FC0110828AE291E0FC0123
:1014F00010828DE291E0FC0110828CE291E0FC010F
:1015000010828EE690E0FC0110828FE690E0FC01F4
:10151000108280E790E0FC01108281E790E0FC01FE
:10152000108282E790E0FC01108283E790E0FC01EA
:10153000108289E690E0FC0110828AE690E0FC01CE
:1015400010828DE390E0FC0110828BE690E0FC01BC
:1015500010828CE690E0FC0110828DE690E0FC01A8
:10156000108288E690E0FC01108280EC90E0FC01A3
:10157000108281EC90E028E9FC01208382EC90E06D
:1015800026E0FC01208385EC90E0FC01108284ECD5
:1015900090E027E6FC01208389EC90E0FC011082BA
:1015A00081ED90E0FC01108281E391E0FC0110826A
:1015B00080E590E020E8FC0120838BE790E0FC01CF
:1015C00010828FE790E0FC0110828AE790E0FC0136
:1015D00010828CE490E0FC0110828CEB90E0FC0126
:1015E0001082789487E04CD882E04AD86AD98091FA
:1015F000060690910706A0910806B0910906BC0165
:10160000CD01AFD67B018C0180910E0690910F0623
:10161000A0911006B09111069C01AD01C801B7015F
:101620000CD6DC01CB01BC01CD01F0D5DC01CB0136
:10163000BC01CD016AD6DC01CB0180931A069093E0
:101640001B06A0931C06B0931D0680910A0690917C
:101650000B06A0910C06B0910D06BC01CD0181D600
:101660007B018C0180910E0690910F06A0911006CF
:10167000B09111069C01AD01C801B70168D7DC012A
:10168000CB016C017D018091060690910706A09127
:101690000806B0910906BC01CD0163D6DC01CB017F
:1016A0009C01AD01C701B601C8D5DC01CB01BC016D
:1016B000CD01ACD5DC01CB01BC01CD0126D6DC01CE
:1016C000CB0180931E0690931F06A0932006B09333
:1016D000210680E991E0A0E0B0E08093FE059093C0
:1016E000FF05A0930006B093010680911206909129
:1016F0001306A0911406B09115069C01AD0160E09F
:1017000070E088E493E499D5DC01CB017C018D0184
:1017100080910E0690910F06A0911006B0911106CF
:101720009C01AD01C801B70112D7DC01CB019C01BE
:10173000AD01BC01CD0106D5DC01CB01BC01CD0161
:10174000E4D5DC01CB018093020690930306A093BD
:101750000406B09305068091160690911706A09195
:101760001806B091190620E030E048E453E4BC01CB
:10177000CD01EDD6DC01CB019C01AD01BC01CD0159
:10178000E1D4DC01CB01BC01CD01BFD5DC01CB0133
:101790008093220690932306A0932406B0932506F7
:1017A0008091160690911706A0911806B09119061F
:1017B00020E030E048E453E4BC01CD01C8D6DC01B0
:1017C000CB019C01AD01BC01CD01BCD4DC01CB013E
:1017D000BC01CD019AD5DC01CB0180932606909304
:1017E0002706A0932806B093290680911A069091A7
:1017F0001B06A0911C06B0911D062B2F2F932A2F9C
:101800002F93292F2F938F9385E393E0892F8F9325
:1018100085E393E08F9381EE94E0892F8F9381EE9F
:1018200094E08F930E94DF178DB79EB708960FB68E
:10183000F894DEBF0FBECDBF81EE94E023D8809137
:101840001E0690911F06A0912006B09121062B2F15
:101850002F932A2F2F93292F2F938F938FE493E089
:10186000892F8F938FE493E08F9381EE94E0892FFB
:101870008F9381EE94E08F930E94DF17EDB7FEB750
:1018800038960FB6F894DEBF0FBECDBF81EE94E060
:101890000E9442048091FE059091FF05A0910006F0
:1018A000B09101062B2F2F932A2F2F93292F2F939F
:1018B0008F9384E693E0892F8F9384E693E08F9350
:1018C00081EE94E0892F8F9381EE94E08F930E94B4
:1018D000DF178DB79EB708960FB6F894DEBF0FBE20
:1018E000CDBF81EE94E00E94420480910206909167
:1018F0000306A0910406B09105062B2F2F932A2FE3
:101900002F93292F2F938F938FE793E0892F8F9316
:101910008FE793E08F9381EE94E0892F8F9381EE90
:1019200094E08F930E94DF17EDB7FEB738960FB69D
:10193000F894DEBF0FBECDBF81EE94E00E9442045A
:101940008091220690912306A0912406B09125064D
:101950002B2F2F932A2F2F93292F2F938F938AE9A1
:1019600093E0892F8F938AE993E08F9381EE94E03F
:10197000892F8F9381EE94E08F930E94DF178DB7AC
:101980009EB708960FB6F894DEBF0FBECDBF81EEAE
:1019900094E00E9442048091260690912706A0912F
:1019A0002806B09129062B2F2F932A2F2F93292F0A
:1019B0002F938F938DEB93E0892F8F938DEB93E093
:1019C0008F9381EE94E0892F8F9381EE94E08F9333
:1019D0000E94DF17EDB7FEB738960FB6F894DEBF5A
:1019E0000FBECDBF81EE94E00E94420487E00E94CA
:1019F00007038091FE059091FF05A0910006B0912C
:101A000001069C01AD0160E080E00E94E40382E0F9
:101A10000E9407038091020690910306A09104069C
:101A2000B09105069C01AD0160E086E00E94E403F0
:101A30009091E20581E0992309F480E0882301F187
:101A40008091E405882F90E02091E305222F30E07B
:101A50002F513C4FF90120818F519B4FFC01208376
:101A60008091E3058F5F8093E3058091E2058150CB
:101A70008093E2058091E4058F5F8093E405D8CFE1
:101A80008091E405882F90E08F519B4FFC011082DC
:101A900081EE94E00E9442041092E40580E090E020
:101AA000A0E8BFE389839A83AB83BC832BEA3AEA3D
:101AB0004AEA50E469817A818B819C8148D5DC01B6
:101AC000CB018D839E83AF83B88720E030E040E870
:101AD00050E469817A818B819C8139D5DC01CB010D
:101AE00089879A87AB87BC8720E030E040E85FE3D6
:101AF0006D817E818F8198859CD388231CF481E041
:101B00008D87A7C020E03FEF4FE757E469857A85CE
:101B10008B859C8518D518160CF074C020E030E039
:101B20004AE754E469817A818B819C8186D3DC0108
:101B3000CB018E879F87A88BB98B20E030E04AE7E6
:101B400055E46E857F858889998901D5DC01CB01B3
:101B50008A8B9B8BAC8BBD8B20E030E040E85FE351
:101B60006A897B898C899D8964D388232CF481E0E0
:101B700090E09F8B8E8B3BC020E03FEF4FE757E418
:101B80006A897B898C899D89DED418163CF520E012
:101B900030E040E251E46E857F8588899989D7D409
:101BA000DC01CB01BC01CD01B0D3DC01CB019F8BAB
:101BB0008E8B8E899F89892B09F44BC080E991E037
:101BC000998F888F888D998D0197F1F7998F888FDC
:101BD0008E899F8901979F8B8E8BEBCF6A897B893A
:101BE0008C899D8992D3DC01CB019F8B8E8B8E8952
:101BF0009F899B8F8A8F8A8D9B8D0197F1F79B8F91
:101C00008A8F27C020E030E04FE753E46D817E816A
:101C10008F81988598D41816A4F469857A858B8568
:101C20009C8573D3DC01CB019D8F8C8F8C8D9D8D1A
:101C30009F8F8E8F8E8D9F8D0197F1F79F8F8E8F47
:101C4000F7CE6D817E818F8198855FD3DC01CB01DA
:101C50008D878D8588A388A18A95F1F788A3E8CE22
:101C60001F920F9200905F000F92112400905B0072
:101C70000F922F933F934F935F936F937F938F9325
:101C80009F93AF93BF93EF93FF93CF93DF93CDB722
:101C9000DEB78091E105882F90E026EC30E0F90175
:101CA00020818F519C4FFC0120838091E1058F5F43
:101CB0008093E1058091E2058F5F8093E2050E94A9
:101CC00015010000DF91CF91FF91EF91BF91AF918E
:101CD0009F918F917F916F915F914F913F912F9144
:101CE0000F9000925B000F9000925F000F901F908A
:101CF00018951F920F9200905F000F921124009090
:101D00005B000F922F933F934F935F936F937F935B
:101D10008F939F93AF93BF93EF93FF93CF93DF93F3
:101D2000CDB7DEB79091E80581E0992309F480E012
:101D3000882329F08091E80581508093E8059091EF
:101D4000E80581E0992309F080E0882309F4AAC01E
:101D50009091E90581E0992309F480E0882309F452
:101D600065C028E830E08091EC059091ED05A091E8
:101D7000EE05B091EF05F901918380838091E6052E
:101D80008F5F8093E6059091E60581E0923009F03F
:101D900080E0882309F486C01092E60588E890E088
:101DA0002FEF3FEFFC01318320838091E905809381
:101DB000E8059091FC0581E0913009F080E08823EE
:101DC00051F18091F4059091F505A091F605B0913F
:101DD000F7050197A109B1098093F4059093F505E2
:101DE000A093F605B093F7058091F4059091F50561
:101DF000A091F605B091F70521E0892B8A2B8B2B5A
:101E000009F020E0222339F01092FC050E943701EE
:101E100087E00E94400381E390E021E330E0F90194
:101E2000308121E02327FC0120833CC09091FC05F8
:101E300081E0913009F080E0882351F18091F40530
:101E40009091F505A091F605B091F7050197A109CC
:101E5000B1098093F4059093F505A093F605B0932E
:101E6000F7058091F4059091F505A091F605B091E4
:101E7000F70521E0892B8A2B8B2B09F020E0222308
:101E800039F01092FC050E94370187E00E94400360
:101E900081E390E021E330E0F901308121E0232764
:101EA000FC01208385E890E0FC01108284E890E04A
:101EB000FC0110820000DF91CF91FF91EF91BF9163
:101EC000AF919F918F917F916F915F914F913F91D2
:101ED0002F910F9000925B000F9000925F000F9087
:101EE0001F9018951F920F9200905F000F9211247F
:101EF00000905B000F922F933F934F935F936F93EC
:101F00007F938F939F93AF93BF93EF93FF93CF9361
:101F1000DF93CDB7DEB79091EA0581E0992309F40C
:101F200080E0882329F08091EA0581508093EA05BA
:101F30009091EA0581E0992309F080E0882309F473
:101F4000AAC09091EB0581E0992309F480E08823F1
:101F500009F465C028E930E08091F0059091F10521
:101F6000A091F205B091F305F901918380838091EE
:101F7000E7058F5F8093E7059091E70581E0923058
:101F800009F080E0882309F486C01092E70588E90B
:101F900090E02FEF3FEFFC01318320838091EB0530
:101FA0008093EA059091FD0581E0913009F080E091
:101FB000882351F18091F8059091F905A091FA05D7
:101FC000B091FB050197A109B1098093F8059093A1
:101FD000F905A093FA05B093FB058091F80590915F
:101FE000F905A091FA05B091FB0521E0892B8A2B18
:101FF0008B2B09F020E0222339F01092FD050E947E
:10200000AA0182E00E94400381E390E021E330E0F6
:10201000F901308120E42327FC0120833CC090910A
:10202000FD0581E0913009F080E0882351F1809135
:10203000F8059091F905A091FA05B091FB0501977B
:10204000A109B1098093F8059093F905A093FA05C9
:10205000B093FB058091F8059091F905A091FA05E0
:10206000B091FB0521E0892B8A2B8B2B09F020E016
:10207000222339F01092FD050E94AA0182E00E94FD
:10208000400381E390E021E330E0F901308120E476
:102090002327FC01208385E990E0FC01108284E97C
:1020A00090E0FC0110820000DF91CF91FF91EF9151
:1020B000BF91AF919F918F917F916F915F914F9160
:1020C0003F912F910F9000925B000F9000925F0064
:1020D0000F901F9018951F920F9200905F000F9223
:1020E000112400905B000F922F933F934F935F93C7
:1020F0006F937F938F939F93AF93BF93EF93FF93D0
:10210000CF93DF93CDB7DEB781E08093E5050E94E2
:102110002B010000DF91CF91FF91EF91BF91AF9123
:102120009F918F917F916F915F914F913F912F91EF
:102130000F9000925B000F9000925F000F901F9035
:1021400018955058BB27AA270ED0ACC19DD130F0AE
:10215000A2D120F031F49F3F11F41EF492C10EF48D
:10216000E095E7FB5FC1E92FAED180F3BA176207B4
:1021700073078407950718F071F49EF5DDC10EF41E
:10218000E0950B2EBA2FA02D0B01B90190010C0187
:10219000CA01A0011124FF27591B99F0593F50F49F
:1021A000503E68F11A16F040A22F232F342F4427F7
:1021B000585FF3CF469537952795A795F0405395EF
:1021C000C9F77EF41F16BA0B620B730B840BBAF0BF
:1021D0009150A1F0FF0FBB1F661F771F881FC2F72A
:1021E0000EC0BA0F621F731F841F48F4879577953E
:1021F0006795B795F7959E3F08F0B3CF9395880FF5
:1022000008F09927EE0F9795879508957ED180F075
:102210009F3740F491110EF490C160E070E080E8C7
:102220009FE3089526F01B16611D711D811D00C1DD
:102230001AC1D4D008F481E008950CD033C12BD159
:1022400040F022D130F021F45F3F19F0EBC0511182
:1022500074C117C138D198F39923C9F35523B1F349
:10226000951B550BBB27AA2762177307840738F005
:102270009F5F5F4F220F331F441FAA1FA9F333D064
:102280000E2E3AF0E0E830D091505040E695001C18
:10229000CAF729D0FE2F27D0660F771F881FBB1FD4
:1022A000261737074807AB07B0E809F0BB0B802DAE
:1022B000BF01FF2793585F4F2AF09E3F510568F0FA
:1022C000B1C03BC15F3FECF3983EDCF38695779558
:1022D0006795B795F7959F5FC9F7880F911D9695FC
:1022E000879597F90895E1E0660F771F881FBB1F58
:1022F000621773078407BA0720F0621B730B840B05
:10230000BA0BEE1F88F7E0950895E5D088F09F5747
:1023100090F0B92F9927B751A0F0D1F0660F771F31
:10232000881F991F1AF0BA95C9F712C0B13081F011
:1023300003D1B1E0089500C1672F782F8827B85FD7
:1023400039F0B93FCCF3869577956795B395D9F772
:102350003EF490958095709561957F4F8F4F9F4F7C
:102360000895E89409C097FB3EF490958095709588
:1023700061957F4F8F4F9F4F9923A9F0F92F96E9D1
:10238000BB279395F695879577956795B795F11146
:10239000F8CFFAF4BB0F11F460FF1BC06F5F7F4FE3
:1023A0008F4F9F4F16C0882311F096E911C07723F5
:1023B00021F09EE8872F762F05C0662371F096E8FE
:1023C000862F70E060E02AF09A95660F771F881FCD
:1023D000DAF7880F9695879597F90895990F000871
:1023E000550FAA0BE0E8FEEF16161706E807F907E7
:1023F000C0F012161306E407F50798F0621B730B82
:10240000840B950B39F40A2661F0232B242B252B02
:1024100021F408950A2609F4A140A6958FEF811DA5
:10242000811D089597F99F6780E870E060E0089546
:10243000882371F4772321F09850872B762F07C0DB
:10244000662311F499270DC09051862B70E060E04F
:102450002AF09A95660F771F881FDAF7880F9695EE
:10246000879597F908959F3F31F0915020F4879513
:1024700077956795B795880F911D9695879597F9EC
:1024800008959FEF80EC089500240A94161617060D
:1024900018060906089500240A9412161306140655
:1024A00005060895092E0394000C11F4882352F0B8
:1024B000BB0F40F4BF2B11F460FF04C06F5F7F4F70
:1024C0008F4F9F4F089557FD9058440F551F59F057
:1024D0005F3F71F04795880F97FB991F61F09F3F11
:1024E00079F087950895121613061406551FF2CF3A
:1024F0004695F1DF08C0161617061806991FF1CF8A
:1025000086957105610508940895E5DFA0F0BEE7A2
:10251000B91788F4BB279F3860F41616B11D672FD2
:10252000782F8827985FF7CF869577956795B11DA7
:1025300093959639C8F30895E894BB2766277727C3
:10254000CB0197F908954ADF08F48FEF08950BD077
:10255000A9CF9ADF28F09FDF18F0952309F062CF0A
:1025600090CF1124EACFAFDFA0F3959FD1F3950F61
:1025700050E0551F629FF001729FBB27F00DB11D07
:10258000639FAA27F00DB11DAA1F649F6627B00D97
:10259000A11D661F829F2227B00DA11D621F739F80
:1025A000B00DA11D621F839FA00D611D221F749F8E
:1025B0003327A00D611D231F849F600D211D822FD5
:1025C000762F6A2F11249F5750408AF0E1F088231C
:1025D0004AF0EE0FFF1FBB1F661F771F881F915029
:1025E0005040A9F79E3F510570F01CCFA6CF5F3F2A
:1025F000ECF3983EDCF3869577956795B795F7955C
:10260000E7959F5FC1F7FE2B880F911D96958795E3
:1026100097F908952F923F924F925F926F927F9217
:102620008F929F92AF92BF92CF92DF92EF92FF92E2
:102630000F931F93CF93DF93CDB7DEB760970FB69D
:10264000F894DEBF0FBECDBF7C011B016A01FC0107
:1026500017821682838181FF2AC39E012F5F3F4F1D
:102660003901F7019381F10193FD859193FF8191E8
:102670001F01882309F417C3853239F493FD85912E
:1026800093FF81911F01853231F4B70190E05BD453
:1026900056016501E6CF10E0512C912CFFE1F915B0
:1026A000D8F08B3279F038F4803279F08332A1F4AB
:1026B000F92DF0612EC08D3261F0803369F4292D3F
:1026C00021602DC0392D3260932E892D8460982E83
:1026D0002AC0E92DE86015C097FC2DC020ED280F19
:1026E0002A3088F496FE06C03AE0139F200D11248C
:1026F000122F19C08AE0589E200D1124522EE92D68
:10270000E0629E2E10C08E3231F496FCCCC2F92DC0
:10271000F0649F2E08C08C3621F4292D2068922E5B
:1027200002C0883641F4F10193FD859193FF8191B8
:102730001F018111B3CF9BEB980F933020F4992D9B
:102740009061805E07C09BE9980F933008F059C1F3
:10275000992D9F7E96FF16E09F73992E853619F46A
:102760009064992E08C0863621F4392F3068932E54
:1027700002C01111115097FE07C01C3350F44424BD
:102780004394410E27E00BC0183038F027E017E0E3
:1027900005C027E09CE3492E02C0212F412C5601A1
:1027A00084E0A80EB11CF601608171818281938161
:1027B000042DA301DAD26C01F981FC87F0FF02C07D
:1027C000F3FF06C091FC06C092FE06C000E205C001
:1027D0000DE203C00BE201C000E08C858C7019F0A3
:1027E000011143C280C297FE10C04C0CFC85F4FF5F
:1027F00004C08A81813309F44A94141474F528E0E2
:10280000241578F588E0482E2CC096FC2AC0812F2C
:1028100090E08C159D059CF03CEFC3163FEFD3066E
:1028200074F0892D8068982E0AC0E2E0F0E0EC0F89
:10283000FD1FE10FF11D8081803319F4115011113A
:10284000F4CF97FE0EC044244394410E812F90E0B4
:10285000C816D9062CF41C1904C04424439401C0A2
:1028600010E097FE06C01C141D0434F4C601019646
:1028700005C085E090E002C081E090E00111019682
:10288000112331F0212F30E02F5F3F4F820F931F34
:10289000252D30E08217930714F4581A01C0512CEB
:1028A000892D897041F4552031F0B70180E290E024
:1028B0004AD35A94F8CF002321F0B701802F90E03B
:1028C00042D393FC08C0552031F0B70180E390E07B
:1028D0003AD35A94F8CF97FE4AC04601D7FE02C0B9
:1028E000812C912CC60188199909F301E80FF91F71
:1028F000FE87ED87960124193109388B2F87012F28
:1029000010E01195019511093FEF8316930621F40C
:10291000B7018EE290E017D3C814D9044CF08F852C
:1029200098898815990524F4ED85FE85818101C07B
:1029300080E3F1E08F1A91082D853E852F5F3F4F90
:102940003E872D878016910624F0B70190E0FBD2D8
:10295000DBCFC814D90441F49A81963320F495331F
:1029600019F43C8534FF81E3B70190E048C08A81C7
:10297000813319F09C859F7E9C87B70190E0E3D25C
:10298000111105C094FC16C085E690E015C0B70192
:102990008EE290E0D8D21E5F82E001E0080FF301E2
:1029A000E80FF11D8081B70190E0CDD2802F011397
:1029B000F4CFE8CF85E490E0B701C5D2D7FC06C0DC
:1029C000C114D10441F4EC85E4FF05C0D194C19455
:1029D000D1088DE201C08BE2B70190E0B4D280E370
:1029E0002AE0C216D1042CF08F5FFAE0CF1AD1088A
:1029F000F7CFB70190E0A7D2B701C601C096A3D226
:102A000049C1833631F0833779F0833509F052C0FC
:102A10001FC0560132E0A30EB11CF60180818983EC
:102A200001E010E0630111C05601F2E0AF0EB11CED
:102A3000F601C080D18096FE03C0612F70E002C015
:102A40006FEF7FEFC60174D28C01F92DFF7713C0B1
:102A5000560122E0A20EB11CF601C080D18096FE84
:102A600003C0612F70E002C06FEF7FEFC60155D247
:102A70008C01F92DF0689F2EF3FD18C0852D90E094
:102A80000817190798F4B70180E290E05CD25A94D5
:102A9000F5CFF60197FC859197FE81916F01B70103
:102AA00090E051D251105A940150110901151105AD
:102AB00081F7F0C0843611F0893659F5560197FE3A
:102AC00009C024E0A20EB11CF601608171818281EF
:102AD00093810AC0F2E0AF0EB11CF60160817181F2
:102AE000072E000C880B990BF92DFF769F2E97FF70
:102AF00009C090958095709561957F4F8F4F9F4F3E
:102B0000F0689F2E2AE030E0A30187D2C82EC618B5
:102B10003EC0092D853721F40F7E2AE030E01DC02C
:102B2000097F8F3691F018F4883559F0BCC0803792
:102B300019F0883711F0B7C0006104FF09C00460C4
:102B400007C094FE08C0066006C028E030E005C05B
:102B500020E130E002C020E132E0560107FF09C069
:102B600084E0A80EB11CF60160817181828193819D
:102B700008C0F2E0AF0EB11CF6016081718180E007
:102B800090E0A3014AD2C82EC6180F77902E96FE69
:102B90000BC0092D0E7FC11650F494FE0AC092FCA2
:102BA00008C0092D0E7E05C0DC2C092D03C0DC2CCD
:102BB00001C0D12E04FF0DC0FE01EC0DF11D80817E
:102BC000803311F4097E09C002FF06C0D394D39468
:102BD00004C0802F867809F0D39403FD10C000FF55
:102BE00006C01C2DD51478F4150D1D190CC0D51474
:102BF00050F4B70180E290E0A6D1D394F8CFD51479
:102C000010F45D1801C0512C04FF0FC0B70180E320
:102C100090E099D102FF16C001FD03C088E790E063
:102C200002C088E590E0B7010CC0802F867851F093
:102C300001FF02C08BE201C080E207FD8DE2B70117
:102C400090E081D1C11630F4B70180E390E07BD1F0
:102C50001150F8CFCA94F301EC0DF11D8081B7013A
:102C600090E071D1C110F6CF15C0F4E0F51550F524
:102C700084E0581A93FE1EC0011125C02C8523FF45
:102C800027C004EE10E0392D3071932EF8018491A5
:102C9000811121C0552009F4FCCCB70180E290E0FD
:102CA00052D15A94F7CFF7018681978123C08FEFD5
:102CB0009FEF20C0B70180E290E045D15A945110B7
:102CC000F9CFDACF512CB701802F90E03CD1D6CF8D
:102CD00008EE10E0D8CF91108052B70190E033D1C8
:102CE0000F5F1F4FD3CF23E0251510F483E0C1CF32
:102CF000512CC4CF60960FB6F894DEBF0FBECDBF87
:102D0000DF91CF911F910F91FF90EF90DF90CF90C7
:102D1000BF90AF909F908F907F906F905F904F90FB
:102D20003F902F900895A1E21A2EAA1BBB1BFD0114
:102D30000DC0AA1FBB1FEE1FFF1FA217B307E4079A
:102D4000F50720F0A21BB30BE40BF50B661F771FF2
:102D5000881F991F1A9469F76095709580959095D2
:102D60009B01AC01BD01CF010895283008F027E098
:102D70003327DA01990F311D87FD916000966105B7
:102D8000710539F432602E5F3D9330E32A95E1F707
:102D900008959F3F30F080387105610509F03C5F70
:102DA0003C5F3D93913008F08068911DDF93CF9395
:102DB0001F930F93FF92EF92192F987F9695E92F0B
:102DC00096959695E90FFF27EA5BFE4F99273327E3
:102DD000EE24FF24A701E70105900894079428F446
:102DE000360FE71EF81E491F511D660F771F881FFB
:102DF000991F0694A1F70590079428F4E70EF81E92
:102E0000491F561FC11D770F881F991F661F069403
:102E1000A1F70590079428F4F80E491F561FC71F05
:102E2000D11D880F991F661F771F0694A1F7059083
:102E3000079420F4490F561FC71FD81F990F661F0C
:102E4000771F881F0694A9F784911095177041F099
:102E5000D695C79557954795F794E7941A95C1F776
:102E6000ECEEF0E06894159015913591659195918F
:102E700005907FE27395E118F10A430B560BC90BDD
:102E8000D009C0F7E10CF11E431F561FC91FD01D0A
:102E90007EF4703311F48A95E6CFE894015030F057
:102EA000080F0AF40027021708F4202F2395022F99
:102EB0007A3328F079E37D932A95E9F710C07D9362
:102EC0002A9589F6069497956795379517951794DF
:102ED000E118F10A430B560BC90BD00998F0239562
:102EE0007E9173957A3308F070E37C932013B8F7E2
:102EF0007E9170617D9330F0839571E37D9370E3F3
:102F00002A95E1F71124EF90FF900F911F91CF9137
:102F1000DF91992787FD90950895FC0105906150F8
:102F200070400110D8F7809590958E0F9F1F0895DF
:102F3000FC016150704001900110D8F78095909588
:102F40008E0F9F1F08950F931F93CF93DF93FB0165
:102F5000238121FD03C08FEF9FEF2CC022FF16C0FD
:102F600046815781248135814217530744F4A0815B
:102F7000B1819D012F5F3F4F318320838C93268148
:102F800037812F5F3F4F3783268314C08B01EC01BD
:102F9000FB010084F185E02D1995892BE1F6D8011C
:102FA00016968D919C911797019617969C938E93E8
:102FB0001697CE01DF91CF911F910F9108950F9336
:102FC0001F93CF93DF93CDB7DEB72E970FB6F8944C
:102FD000DEBF0FBECDBF0E891F8986E08C831A83AA
:102FE00009838FEF9FE79E838D83AE01465E5F4F1F
:102FF000688D798DCE0101960DDBEF81F885E00FAC
:10300000F11F10822E960FB6F894DEBF0FBECDBF13
:10301000DF91CF911F910F910895FA01AA272830CF
:1030200051F1203181F1E8946F936E7F6E5F7F4F95
:103030008F4F9F4FAF4FB1E03ED0B4E03CD0670F11
:10304000781F891F9A1FA11D680F791F8A1F911D64
:10305000A11D6A0F711D811D911DA11D20D009F4B4
:1030600068943F912AE0269F11243019305D3193F6
:10307000DEF6CF010895462F4770405D4193B3E0DF
:103080000FD0C9F7F6CF462F4F70405D4A3318F086
:10309000495D31FD4052419302D0A9F7EACFB4E037
:1030A000A6959795879577956795BA95C9F70097EF
:1030B0006105710508959B01AC010A2E0694579590
:1030C000479537952795BA95C9F7620F731F841FE7
:1030D000951FA01D0895F999FECF92BD81BDF89A64
:0A30E000992780B50895F894FFCFFA
:1030EA0048656C6C6C6F0A0A004469616D6574729C
:1030FA00756C207361726D656920696E206D6D3F14
:10310A00200A004469616D657472756C207361727E
:10311A006D6569206573746520252E3666206D6D90
:10312A00200A004C756E67696D656120626F62697D
:10313A006E6569206D6D3F0A004C756E67696D6535
:10314A006120626F62696E65692065737465202506
:10315A006C75206D6D200A004E756D6172756C205C
:10316A0064652073706972653F0A004E756D6172FD
:10317A00756C206465207370697265206573746567
:10318A0020256C75200A00436F6566696369656E60
:10319A0074756C206465206465706C617361726516
:1031AA003F0A00436F6566696369656E74756C20D2
:1031BA006465206465706C617361726520657374FF
:1031CA006520252E3666200A00566974657A612CB8
:1031DA00206E7220646520626F62696E6172692076
:1031EA00706520736563756E64613F0A004E7220D4
:1031FA00646520626F62696E61726920706520730E
:10320A006563756E6461206573746520252E366664
:10321A00206D6D0A004E7220646520666972652011
:10322A00706520737472617420256C75200A004ED3
:10323A007220646520737472617475726920256CDA
:10324A0075200A004E7220646520696D70756C7372
:10325A00757269207065205820256C75200A004E09
:10326A007220646520696D70756C7375726920705F
:10327A0065205920256C75200A004E72206465204D
:10328A00696D70756C7375726920706520736563FA
:10329A00756E6461205820256C75200A004E7220D4
:1032AA00646520696D70756C73757269207065202C
:1032BA00736563756E6461205920256C75200A0058
:00000001FF
