:1000000071C000008EC000008CC000008AC00000DB
:1000100088C0000086C0000084C0000082C00000CC
:1000200080C000007EC000007CC000007AC00000DC
:1000300078C0000076C0000074C0000072C00000EC
:1000400070C000006EC000006CC000006AC00000FC
:1000500068C0000066C0000064C0000062C000000C
:1000600060C0000017C300005CC000005AC0000060
:1000700058C0000056C0000054C0000052C000002C
:1000800050C000004EC000004CC000004AC000003C
:1000900048C0000046C0000044C0000042C000004C
:1000A00040C000003EC000003CC000003AC000005C
:1000B00038C0000036C0000034C0000032C000006C
:1000C00030C000002EC000002CC000002AC000007C
:1000D00028C0000026C0000024C0000022C000008C
:1000E00020C0000011241FBECFEFD1E2DEBFCDBF84
:1000F00000E00CBF12E0A0E0B2E0E6E2F9E000E0D0
:100100000BBF02C007900D92A830B107D9F724E0C9
:10011000A8E0B2E001C01D92AC30B207E1F740D0D8
:1001200000C46ECFCF93DF931F92CDB7DEB7898324
:1001300080EC90E0FC018081882F90E0807299270C
:1001400021E0892B09F020E0222309F0F1CF86EC91
:1001500090E02981FC01208300000F90DF91CF9176
:100160000895CF93DF931F921F92CDB7DEB79A8386
:10017000898389819A81FC018081882359F0898152
:100180009A81FC018081CEDF89819A8101969A83D0
:100190008983EFCF00000F900F90DF91CF910895EA
:1001A000CF93DF93CDB7DEB72E970FB6F894DEBFAF
:1001B0000FBECDBF81E290E0FC01108282E290E0B0
:1001C000FC01108284E290E020E8FC01208385E2BB
:1001D00090E0FC01108287E290E0FC01108288E24E
:1001E00090E0FC0110828AE290E020E8FC0120838C
:1001F0008BE290E0FC0110828DE290E022E0FC01B5
:1002000020838EE290E0FC01108280E390E027ECF6
:10021000FC01208381E390E0FC01108283E390E005
:10022000FC01108284E390E0FC01108281E091E007
:10023000FC01108282E091E0FC01108284E091E0F8
:10024000FC01108285E091E0FC01108287E091E0E2
:10025000FC01108288E091E0FC0110828AE091E0CC
:10026000FC0110828BE091E0FC01108284E490E0BC
:10027000FC01108285E490E0FC01108286E490E0AD
:10028000FC01108287E490E0FC01108288E490E099
:10029000FC01108280E890E0FC01108281E890E08F
:1002A000FC01108285E890E0FC01108284E890E077
:1002B000FC01108287E890E0FC01108286E890E063
:1002C000FC01108289E890E0FC01108288E890E04F
:1002D000FC0110828BE890E0FC0110828AE890E03B
:1002E000FC0110828DE890E0FC0110828CE890E027
:1002F000FC01108286EB90E0FC01108280EB90E024
:10030000FC01108281EB90E0FC01108282EB90E016
:10031000FC01108283EB90E0FC01108284EB90E002
:10032000FC01108280E990E0FC01108281E990E0FC
:10033000FC01108285E990E0FC01108284E990E0E4
:10034000FC01108287E990E0FC01108286E990E0D0
:10035000FC01108289E990E0FC01108288E990E0BC
:10036000FC0110828BE990E0FC0110828AE990E0A8
:10037000FC0110828DE990E0FC0110828CE990E094
:10038000FC01108280EA90E0FC01108281EA90E09A
:10039000FC01108285EA90E0FC01108284EA90E082
:1003A000FC01108287EA90E0FC01108286EA90E06E
:1003B000FC01108289EA90E0FC01108288EA90E05A
:1003C000FC0110828BEA90E0FC0110828AEA90E046
:1003D000FC0110828DEA90E0FC0110828CEA90E032
:1003E000FC01108280E291E0FC01108281E291E048
:1003F000FC01108285E291E0FC01108284E291E030
:10040000FC01108287E291E0FC01108286E291E01B
:10041000FC01108289E291E0FC01108288E291E007
:10042000FC0110828BE291E0FC0110828AE291E0F3
:10043000FC0110828DE291E0FC0110828CE291E0DF
:10044000FC0110828EE690E0FC0110828FE690E0C5
:10045000FC01108280E790E0FC01108281E790E0CF
:10046000FC01108282E790E0FC01108283E790E0BB
:10047000FC01108289E690E0FC0110828AE690E09F
:10048000FC0110828DE390E0FC0110828BE690E08D
:10049000FC0110828CE690E0FC0110828DE690E079
:1004A000FC01108288E690E0FC01108280EC90E074
:1004B000FC01108281EC90E028E9FC01208382ECB1
:1004C00090E026E0FC01208385EC90E0FC011082A6
:1004D00084EC90E027E6FC01208389EC90E0FC01AD
:1004E000108281ED90E0FC01108281E391E0FC013B
:1004F000108280E590E020E8FC0120838BE790E00B
:10050000FC0110828FE790E0FC0110828AE790E006
:10051000FC0110828CE490E0FC0110828CEB90E0F6
:10052000FC011082789480E090E0AAE7B4E489832B
:100530009A83AB83BC8320E030E04AE755E46981CD
:100540007A818B819C8162D1DC01CB018D839E837A
:10055000AF83B88720E030E040E85FE36D817E81C3
:100560008F819885D2D088232CF481E090E09A87FF
:1005700089873AC020E03FEF4FE757E46D817E81E5
:100580008F8198853FD1181634F520E030E040E2A5
:1005900051E469817A818B819C8138D1DC01CB0166
:1005A000BC01CD01B6D0DC01CB019A878987898552
:1005B0009A85892B19F180E991E09C878B878B853F
:1005C0009C850197F1F79C878B8789859A85019790
:1005D0009A878987ECCF6D817E818F81988599D0AC
:1005E000DC01CB019A87898789859A859E878D87CB
:1005F0008D859E850197F1F79E878D8787E0E0E0E6
:10060000F2E0A8E0B3E001900D928A95E1F788E06E
:1006100093E0A7DD85E290E025E230E0F90130814A
:1006200020E82327FC0120839091090481E099238D
:1006300009F480E0882301F180910B04882F90E079
:1006400020910A04222F30E0285F3D4FF9012081DC
:10065000885F9C4FFC01208380910A048F5F809308
:100660000A048091090481508093090480910B044D
:100670008F5F80930B04D8CF80910B04882F90E07C
:10068000885F9C4FFC01108288E093E06ADD109245
:100690000B0449CF1F920F9200905F000F9211241C
:1006A00000905B000F922F933F938F939F93EF9354
:1006B000FF93CF93DF93CDB7DEB780910804882FE7
:1006C00090E026EC30E0F9012081885F9D4FFC012D
:1006D0002083809108048F5F80930804809109042F
:1006E0008F5F809309040000DF91CF91FF91EF911C
:1006F0009F918F913F912F910F9000925B000F90EF
:1007000000925F000F901F9018952FD008F481E0A1
:10071000089557D088F09F5790F0B92F9927B75177
:10072000A0F0D1F0660F771F881F991F1AF0BA95B5
:10073000C9F712C0B13081F05ED0B1E008955BC05E
:10074000672F782F8827B85F39F0B93FCCF38695AB
:1007500077956795B395D9F73EF490958095709508
:1007600061957F4F8F4F9F4F0895990F0008550F48
:10077000AA0BE0E8FEEF16161706E807F907C0F027
:1007800012161306E407F50798F0621B730B840B2F
:10079000950B39F40A2661F0232B242B252B21F409
:1007A00008950A2609F4A140A6958FEF811D811DA9
:1007B000089557FD9058440F551F59F05F3F71F051
:1007C0004795880F97FB991F61F09F3F79F08795B8
:1007D0000895121613061406551FF2CF4695F1DF41
:1007E00008C0161617061806991FF1CF86957105D1
:1007F000610508940895E894BB2766277727CB0105
:1008000097F90895B2DF08F48FEF08950BD078C000
:1008100069D028F06ED018F0952309F05AC05FC057
:100820001124EACFC6DFA0F3959FD1F3950F50E0D6
:10083000551F629FF001729FBB27F00DB11D639F92
:10084000AA27F00DB11DAA1F649F6627B00DA11D38
:10085000661F829F2227B00DA11D621F739FB00DDE
:10086000A11D621F839FA00D611D221F749F33274E
:10087000A00D611D231F849F600D211D822F762FE7
:100880006A2F11249F5750408AF0E1F088234AF0E4
:10089000EE0FFF1FBB1F661F771F881F9150504030
:1008A000A9F79E3F510570F014C0A6CF5F3FECF34F
:1008B000983EDCF3869577956795B795F795E7951C
:1008C0009F5FC1F7FE2B880F911D9695879597F92D
:1008D000089597F99F6780E870E060E008959FEFC2
:1008E00080EC089500240A941616170618060906C7
:1008F000089500240A941216130614060506089596
:10090000092E0394000C11F4882352F0BB0F40F41D
:10091000BF2B11F460FF04C06F5F7F4F8F4F9F4F5D
:060920000895F894FFCFDA
:0809260048656C6C6F0A0000CB
:00000001FF
